:100000000C9463000C948B000C948B000C948B006C
:100010000C948B000C948B000C948B000C948B0034
:100020000C948B000C948B000C948B000C948B0024
:100030000C948B000C948B000C948B000C948B0014
:100040000C94D9050C948B000C94A7050C94810595
:100050000C948B000C948B000C948B000C948B00F4
:100060000C9423060C948B00000000002300260053
:10007000290000000008000201000003040700003E
:1000800000000000000000000000250028002B00F8
:1000900000000000240027002A00040404040404D3
:1000A0000404020202020202030303030303010227
:1000B00004081020408001020408102001020408F6
:1000C000102057073E0711241FBECFEFD8E0DEBF38
:1000D000CDBF11E0A0E0B1E0E6E8FBE102C0059091
:1000E0000D92A834B107D9F723E0A8E4B1E001C02C
:1000F0001D92AC37B207E1F710E0C2E6D0E004C0D1
:100100002197FE010E94BE0BC136D107C9F70E949C
:10011000A7090C94B60D0C940000909187022091D1
:1001200088023091890280E0981749F0235F3F4FA1
:10013000F9013D974081442311F08F5FF5CF089579
:10014000AF92BF92CF92DF92EF92FF920F931F93E5
:10015000CF93DF936C017B018B01040F151FEB0123
:100160005E01AE18BF08C017D10759F06991D601DA
:10017000ED91FC910190F081E02DC6010995892B4C
:1001800079F7C501DF91CF911F910F91FF90EF900B
:10019000DF90CF90BF90AF900895FC01538D448DB8
:1001A000252F30E0842F90E0821B930B541710F022
:1001B000CF96089501970895FC01918D828D98172F
:1001C00061F0A28DAE0FBF2FB11D5D968C91928D07
:1001D0009F5F9F73928F90E008958FEF9FEF089538
:1001E000FC01918D828D981731F0828DE80FF11D01
:1001F000858D90E008958FEF9FEF0895FC01918D1C
:10020000228D892F90E0805C9F4F821B91098F7314
:100210009927089583EC91E00E94FE0021E0892B4C
:1002200009F420E0822F0895FC01A48DA80FB92FB6
:10023000B11DA35ABF4F2C91848D90E001968F730E
:100240009927848FA689B7892C93A089B1898C912D
:10025000837080648C93938D848D981306C002887C
:10026000F389E02D80818F7D80830895EF92FF9246
:100270000F931F93CF93DF93EC0181E0888F9B8DC9
:100280008C8D98131AC0E889F989808185FF15C083
:100290009FB7F894EE89FF896083E889F9898081A6
:1002A0008370806480839FBF81E090E0DF91CF9175
:1002B0001F910F91FF90EF900895F62E0B8D10E097
:1002C0000F5F1F4F0F731127E02E8C8D8E110CC006
:1002D0000FB607FCFACFE889F989808185FFF5CF51
:1002E000CE010E941401F1CFEB8DEC0FFD2FF11D1B
:1002F000E35AFF4FF0829FB7F8940B8FEA89FB898E
:1003000080818062CFCFCF93DF93EC01888D8823EB
:10031000B9F0AA89BB89E889F9898C9185FD03C068
:10032000808186FD0DC00FB607FCF7CF8C9185FF4D
:10033000F2CF808185FFEDCFCE010E941401E9CF7D
:10034000DF91CF910895833081F028F4813099F0C6
:100350008230A9F008958730A9F08830C9F0843040
:10036000B1F4809180008F7D03C0809180008F77F1
:1003700080938000089584B58F7784BD089584B5F7
:100380008F7DFBCF8091B0008F778093B000089570
:100390008091B0008F7DF9CFCF93DF93282F30E08D
:1003A000F901EE58FF4F8491F901E255FF4FD491C6
:1003B000F901E656FF4FC491CC23A1F081110E94B0
:1003C000A301EC2FF0E0EE0FFF1FE859FF4FA591BE
:1003D000B491EC91ED2381E090E009F480E0DF91AD
:1003E000CF91089580E090E0FACF1F93CF93DF93F1
:1003F000282F30E0F901EE58FF4F8491F901E255C2
:10040000FF4FD491F901E656FF4FC491CC23A9F0D8
:10041000162F81110E94A301EC2FF0E0EE0FFF1FB9
:10042000EA57FF4FA591B4918FB7F894EC91111151
:1004300008C0D095DE23DC938FBFDF91CF911F9151
:100440000895DE2BF8CFCF93DF9300D000D000D0FB
:10045000CDB7DEB76091480181E06827609348011D
:100460008DE026960FB6F894DEBF0FBECDBFDF91AC
:10047000CF910C94F5012FB7F8946091BF01709162
:10048000C0018091C1019091C2012FBF08952091B8
:100490007001260F3327331F21323105ECF42091F0
:1004A0009401FC0190E080E0243069F082E008953E
:1004B000A09170012191AC01405B5E4FA40FB52F5C
:1004C000B11D2C930196861798F380917001680FE7
:1004D0006093700180E0089581E0089508958FEFA2
:1004E0009FEF08958FEF9FEF08958091490190E06D
:1004F0009195819591090895CF93DF93CB01EA01FE
:10050000642F0E944702CE01DF91CF910895CF93CF
:10051000DF931F92CDB7DEB7698361E0CE0101960C
:100520000E94470281E090E00F90DF91CF91089503
:1005300090E080E00895CF93DF93C62FD82FFC0181
:1005400080E090E0DC01219130ED320F3A30E8F4A8
:1005500044E0880F991FAA1FBB1F4A95D1F7022EAE
:10056000000C330B20533109A901330F660B770BB5
:10057000840F951FA61FB71F2E2F2D1B2C1718F3A6
:10058000BC01CD01DF91CF9108953FEB320F3630A2
:10059000B8F734E0880F991FAA1FBB1F3A95D1F70F
:1005A000022E000C330B27533109DECFCF93DF939C
:1005B000EC0188819981009711F00E94600C1982EA
:1005C00018821D821C821B821A82DF91CF910895AE
:1005D000FC0101900020E9F73197AF01481B590B4E
:1005E000BC0183EC91E00C94A0000F931F93CF9378
:1005F000DF9300D000D000D0CDB7DEB788E191E026
:100600000E94E80288E291E00E94E8020E948D00C8
:1006100090918702F0E0E0E0891748F4E0918802C9
:10062000F09189022DE0829FE00DF11D11242181BE
:100630002223B9F0891750F4E0918802F0918902E1
:100640009DE0899FE00DF11D1124118226960FB6C1
:10065000F894DEBF0FBECDBFDF91CF911F910F91F8
:100660000895891798F7EDE08E9F80011124A091DD
:100670008802B0918902A00FB11F81E011968C937E
:1006800011971B96ED91FC911C9780918A023091F5
:100690008B0220918C0290918D02482FBE83AD83F6
:1006A000532F622F792F8A2F9E810995809188027E
:1006B00090918902080F191F80918A0290918B02F4
:1006C000A0918C02B0918D02F80187839087A18759
:1006D000B287BCCF0F931F93CF93DF93EC01888138
:1006E0009981009759F02A813B812617370730F00E
:1006F00081E0DF91CF911F910F9108958B016F5F82
:100700007F4F0E94E90C009759F0998388831B83DF
:100710000A832C813D81232B59F7FC011082E8CFFD
:1007200080E0E7CF8F929F92AF92BF92CF92DF92FD
:10073000EF92FF920F931F93CF93DF93CDB7DEB766
:10074000A1970FB6F894DEBF0FBECDBFE1E5F3E091
:10075000119283E0E637F807D9F710E097E0E92E29
:10076000F12C83EC91E00E94FE00892B71F083EC68
:1007700091E00E94DC00E12FF0E0EF5AFC4F808313
:100780001F5FC7010197F1F7ECCF809151038130D2
:1007900009F069C0193008F466C064E084E593E0AC
:1007A0000E949B024B0162E082E593E00E949B0263
:1007B000E62E00914F03109150030115110541F0F1
:1007C000F801838194810E94600CC8010E94600C32
:1007D00086E090E00E94C40B8C016E2D660FFC0138
:1007E0009182808262831582E62EF12CC7010E94DD
:1007F000C40BF80194838383009709F047C01282E9
:100800001093500300934F03980150E040E019A269
:100810008E010F5D1F4F8AE0C82ED12CE12CF12CE8
:10082000CA01B901A70196010E949C0B605DF80105
:1008300062938F01211531054105510589F73097E4
:1008400019F0CF010E94E80288E291E00E94E802DC
:10085000E0917603F091770361E573E080914F03B7
:10086000909150030995A1960FB6F894DEBF0FBE84
:10087000CDBFDF91CF911F910F91FF90EF90DF904F
:10088000CF90BF90AF909F908F900895A70168E59B
:1008900073E00E94A60DB4CF0E940A0181110C944E
:1008A000920308951F93CF93DF9385ED8093BC004F
:1008B00080914C0190914D01A0914E01B0914F015A
:1008C0000796A11DB11D23E0B695A795979587952D
:1008D0002A95D1F72091BC0024FD03C01092940109
:1008E00052C040914C0150914D0160914E01709168
:1008F0004F01452B462B472B69F30097A105B10506
:1009000041F02AE22A95F1F700C00197A109B10947
:10091000E1CF80914B01C1E0C0934A01882399F156
:10092000D091B8001091BA008091BC008A7B80936E
:10093000BC0060E082E10E94F50160E083E10E947A
:10094000F50110929401C09396011092950161E017
:1009500082E10E94F50161E083E10E94F50180914E
:10096000B9008E7F8093B9008091B9008D7F80930C
:10097000B90088E48093B80085E48093BC001093AC
:10098000BA00D093B800DF91CF911F910895CF9214
:10099000DF92EF92FF920F931F93CF93DF93CDB728
:1009A000DEB767970FB6F894DEBF0FBECDBF1B8AC8
:1009B0001A8A1D8A1C8A1F8A1E8A4AE08E010F5FCE
:1009C0001F4FB8010E943B0BF80101900020E9F78E
:1009D00031977F01E01AF10AB701CE0142960E94D9
:1009E0006A0381116AC0CE0142960E94D6021A8221
:1009F00019821C821B821E821D826BE170E0C8017D
:100A00000E946A03811161C0C8010E94D602CA888F
:100A1000DB88C114D10409F463C0EE88FF88E114B7
:100A2000F104B1F08D819E81E80EF91EB701C80175
:100A30000E946A03882309F453C029813A818D8179
:100A40009E81B601820F931F0E94AF0DFE82ED8240
:100A5000ED80FE808FEFE81AF80AB701C8010E9406
:100A60006A03811141C0C8010E94D6024D815E8196
:100A700069817A8183EC91E00E94A00088E291E094
:100A80000E94E80289819A81009711F00E94600C0F
:100A90008A899B89009711F00E94600C67960FB6B7
:100AA000F894DEBF0FBECDBFDF91CF911F910F91A4
:100AB000FF90EF90DF90CF900895FF8AEE8AB80103
:100AC0008A899B890E94AF0D92CF8BE190E09E8333
:100AD0008D836BE271E089819A810E94AF0D97CF7F
:100AE000C8010E94D602B4CF29813A818D819E81AE
:100AF00066E271E0820F931F0E94AF0DFE82ED82CD
:100B0000B5CF1F920F920FB60F9211242F933F93E0
:100B10004F935F936F937F938F939F93AF93BF9305
:100B2000EF93FF9383EC91E00E941401FF91EF910A
:100B3000BF91AF919F918F917F916F915F914F91F5
:100B40003F912F910F900FBE0F901F9018951F92FD
:100B50000F920FB60F9211242F938F939F93EF93C1
:100B6000FF93E091D301F091D4018081E091D9010C
:100B7000F091DA0182FD1BC090818091DC018F5FD2
:100B80008F732091DD01821741F0E091DC01F0E0EC
:100B9000ED53FE4F958F8093DC01FF91EF919F9174
:100BA0008F912F910F900FBE0F901F9018958081FD
:100BB000F4CF1F920F920FB60F9211242F933F93F1
:100BC0008F939F93AF93BF938091BF019091C0018A
:100BD000A091C101B091C2013091BE0123E0230F69
:100BE0002D3758F50196A11DB11D2093BE018093AC
:100BF000BF019093C001A093C101B093C201809145
:100C0000BA019091BB01A091BC01B091BD010196C8
:100C1000A11DB11D8093BA019093BB01A093BC01AB
:100C2000B093BD01BF91AF919F918F913F912F9153
:100C30000F900FBE0F901F90189526E8230F029675
:100C4000A11DB11DD2CF1F920F920FB60F9211248A
:100C50002F933F934F935F936F937F938F939F93C4
:100C6000AF93BF93EF93FF938091B900887F803655
:100C700009F44AC0F0F5883209F4A5C018F58031AE
:100C800009F499C0B8F4882309F4F5C0883009F450
:100C900092C0FF91EF91BF91AF919F918F917F9102
:100CA0006F915F914F913F912F910F900FBE0F90D9
:100CB0001F901895883109F486C0803251F78093CF
:100CC000930114C0803409F49BC040F48033B9F31D
:100CD0008833F9F68093930185ECAEC0803509F432
:100CE00083C0883509F494C0883499F60E94520470
:100CF000D0CF883909F48AC038F5883729F050F404
:100D0000883611F0803729F683E0809394011092A1
:100D1000920155C0883809F479C0803919F08038BB
:100D200009F0B7CF80919201803208F06FC0E09156
:100D3000920181E08E0F809392018091BB00F0E0E0
:100D4000EE58FE4F80833BC0803B39F0D0F4803AB0
:100D500009F477C0883A09F09CCF84E0809394012D
:100D60001092710110927001F0E0E0E0099580911D
:100D7000700181110FC081E08093700110925001C9
:100D800009C0803C09F4A8CF883C09F4A5CF883B72
:100D900009F07FCFE091710181E08E0F80937101A6
:100DA000F0E0E05BFE4F80818093BB009091710189
:100DB0008091700129C08091B9018093BB0085ECBE
:100DC0008093BC0066CF9091B8018091B7019817CD
:100DD00058F5E091B80181E08E0F8093B801F0E002
:100DE000E956FE4F8081E9CFE091B80181E08E0F96
:100DF0008093B8018091BB00F0E0E956FE4F8083FC
:100E00009091B8018091B7019817C8F285E8D8CFC2
:100E1000E091B80181E08E0F8093B8018091BB0012
:100E2000F0E0E956FE4F80838091960181115ECFFC
:100E300081E08093950184EA8093BC001092940134
:100E400028CF85EC8093BC00109294018091920190
:100E5000803230F4E0919201F0E0EE58FE4F1082C3
:100E60006091920170E082E791E0F0E0E0E00995A6
:100E7000109292010ECF1092930138CFCF93DF934F
:100E800080918802909189020E94600CCEE4D3E0A8
:100E900026978B819C810E94600CCE010E94600C81
:100EA00082E0CE38D807A1F7DF91CF910895CF9394
:100EB000DF931092C6011092C50188EE93E0A0E086
:100EC000B0E08093C7019093C801A093C901B0938B
:100ED000CA018AE091E09093C4018093C30185EC3C
:100EE00090E09093D0018093CF0184EC90E09093B8
:100EF000D2018093D10180EC90E09093D401809353
:100F0000D30181EC90E09093D6018093D50182ECDF
:100F100090E09093D8018093D70186EC90E0909375
:100F2000DA018093D9011092DC011092DD01109258
:100F3000DE011092DF0110928F0210928E02109249
:100F400090021092920210929102109293021092CB
:100F500095021092940210929602109298021092AA
:100F600097021092990210929B0210929A0210928C
:100F70009C0210929E0210929D0210929F0210926B
:100F8000A1021092A0021092A2021092A40210924A
:100F9000A3021092A5021092A7021092A60210922C
:100FA000A8021092AA021092A9021092AB0210920B
:100FB000AD021092AC021092AE021092B0021092EA
:100FC000AF021092B1021092B3021092B2021092CC
:100FD000B4021092B6021092B5021092B7021092AB
:100FE000B9021092B8021092BA021092BC0210928A
:100FF000BB021092BD021092BF021092BE0210926C
:10100000C0021092C2021092C1021092C30210924A
:10101000C5021092C4021092C6021092C802109229
:10102000C7021092C9021092CB021092CA0210920B
:10103000CC021092CE021092CD021092CF021092EA
:10104000D1021092D0021092D2021092D4021092C9
:10105000D3021092D5021092D7021092D6021092AB
:10106000D8021092DA021092D9021092DB0210928A
:10107000DD021092DC021092DE021092E002109269
:10108000DF021092E1021092E3021092E20210924B
:10109000E4021092E6021092E5021092E70210922A
:1010A000E9021092E8021092EA021092EC02109209
:1010B000EB021092ED021092EF021092EE021092EB
:1010C000F0021092F2021092F1021092F3021092CA
:1010D000F5021092F4021092F6021092F8021092A9
:1010E000F7021092F9021092FB021092FA0210928B
:1010F000FC021092FE021092FD021092FF0210926A
:101100000103109200031092020310920403109244
:101110000303109205031092070310920603109226
:10112000080310920A031092090310920B03109205
:101130000D0310920C0310920E03109210031092E4
:101140000F031092110310921303109212031092C6
:1011500014031092160310921503109217031092A5
:1011600019031092180310921A0310921C03109284
:101170001B0310921D0310921F0310921E03109266
:101180002003109222031092210310922303109245
:101190002503109224031092260310922803109224
:1011A00027031092290310922B0310922A03109206
:1011B0002C0310922E0310922D0310922F031092E5
:1011C00031031092300310923203109234031092C4
:1011D00033031092350310923703109236031092A6
:1011E000380310923A031092390310923B03109285
:1011F0003D0310923C0310923E0310924003109264
:101200003F03109241031092430310924203109245
:101210004403109246031092450310924703109224
:1012200049031092480310924A0310924C03109203
:101230004B0310924D031092500310924F03E1E5BF
:10124000F3E085E2DF011D928A95E9F710928702AB
:1012500010928902109288020E943B0260938A02D7
:1012600070938B0280938C0290938D0210927A027D
:1012700010927B0284EF91E0A0E0B0E080937C02CA
:1012800090937D02A0937E02B0937F02C1E0C09351
:1012900080020E943B0260938102709382028093DD
:1012A00083029093840283E292E09093860280937B
:1012B00085021092610210926002109263021092F5
:1012C000620283E080936402C09365028EE190E045
:1012D000909367028093660210926C0210926D02E6
:1012E00010926E0210926F021092700210927102B0
:1012F0001092720210927302109275021092740290
:101300001092770210927602E1EBF0E02491EDE981
:10131000F0E084918823C1F090E0880F991FFC01D0
:10132000E057FF4FC591D491FC01EA57FF4FA591BB
:10133000B4919FB7F8943881822F80958323888356
:10134000EC91E22BEC939FBFDF91CF910895CF9367
:10135000DF9300D000D000D0CDB7DEB7789484B54D
:10136000826084BD84B5816084BD85B5826085BDA1
:1013700085B5816085BD80916E00816080936E002F
:101380001092810080918100826080938100809121
:1013900081008160809381008091800081608093D2
:1013A00080008091B10084608093B1008091B00092
:1013B00081608093B00080917A00846080937A008D
:1013C00080917A00826080937A0080917A008160B7
:1013D00080937A0080917A00806880937A001092DE
:1013E000C100E091D301F091D40182E08083E091CB
:1013F000CF01F091D0011082E091D101F091D201A2
:1014000081E080831092DB01E091D701F091D80157
:1014100086E08083E091D501F091D60180818061E2
:101420008083E091D501F091D6018081886080832E
:10143000E091D501F091D601808180688083E091B0
:10144000D501F091D60180818F7D808385EF92E078
:10145000909363028093620287EC94E09093610220
:10146000809360028DE0F82E11E00E943B026093B1
:101470008A0270938B0280938C0290938D028091EC
:101480008702882309F459C000E080918702081779
:1014900008F053C00F9D60011124A0918802B09103
:1014A0008902AC0DBD1D11968C911197882309F40A
:1014B00042C080908A0290908B02A0908C02B090E3
:1014C0008D0217964D915D916D917C911A97240133
:1014D0003501441A550A660A770AB301A201129629
:1014E0004D905D906D907C9015974415550566055F
:1014F000770508F117968D929D92AD92BC921A973E
:101500001B96ED91FC911C97482D89829A82AB82A3
:10151000BC82BE83AD835A816B817C818A2F9E8180
:101520000995E0918802F0918902EC0DFD1D8681FC
:10153000811101C011820F5FA8CF0E943B028090F1
:10154000700290907102A0907202B0907302AB0191
:10155000BC01481959096A097B098091660290917A
:101560006702B0E0A0E0481759076A077B0708F454
:1015700069C010927802109279020E943B02609337
:101580007002709371028093720290937302809143
:101590006502882309F45EC0809164020E94CC0138
:1015A000892B29F41093680210926A0224C01092C9
:1015B000680280916B028823B9F310936A0210923B
:1015C0006B02109269020E943B0220916C023091E2
:1015D0006D02CB01821B930B909375028093740272
:1015E0001092770210927602E0916002F09161020F
:1015F000309709F00995809168028823C9F180919C
:101600006B02811135C010936B0210936902109226
:101610007502109274020E943B02709377026093ED
:1016200076020E943B0260936C0270936D0280937D
:101630006E0290936F02E0916202F0916302309724
:1016400009F009950E940A01882309F40ECF0E942F
:1016500092030BCF809164020E94CC0121E000979D
:1016600009F420E020936802892B09F4A2CF9CCFD3
:1016700010926902E7CFBB27FB015527AA27880FE5
:10168000991FAA1FA41710F0A41B83955051B9F7F6
:10169000A05DAA3308F0A95DA193009779F7B11175
:1016A000B1931192CB010C94550BDC01FC01672F17
:1016B00071917723E1F7329704C07C916D93708329
:1016C0006291AE17BF07C8F308952F923F924F92D1
:1016D0005F926F927F928F929F92AF92BF92CF92C2
:1016E000DF92EF92FF920F931F93CF93DF93CDB7CB
:1016F000DEB7CA1BDB0B0FB6F894DEBF0FBECDBF43
:1017000009942A88398848885F846E847D848C8413
:101710009B84AA84B984C884DF80EE80FD800C811C
:101720001B81AA81B981CE0FD11D0FB6F894DEBFFF
:101730000FBECDBFED010895A1E21A2EAA1BBB1B5F
:10174000FD010DC0AA1FBB1FEE1FFF1FA217B3078D
:10175000E407F50720F0A21BB30BE40BF50B661FA3
:10176000771F881F991F1A9469F760957095809567
:1017700090959B01AC01BD01CF010895EE0FFF1FB5
:101780000590F491E02D09940F931F93CF93DF936D
:101790008230910510F482E090E0E0917A03F091BC
:1017A0007B0330E020E0B0E0A0E0309799F4211511
:1017B000310509F44AC0281B390B24303105D8F50E
:1017C0008A819B816115710589F1FB019383828375
:1017D000FE0111C0408151810281138148175907D0
:1017E000E0F04817590799F4109761F012960C939E
:1017F000129713961C933296CF01DF91CF911F91D0
:101800000F91089500937A0310937B03F4CF211571
:10181000310551F04217530738F0A901DB019A0155
:10182000BD01DF01F801C1CFEF01F9CF90937B0338
:1018300080937A03CDCFFE01E20FF31F8193919342
:101840002250310939832883D7CF209178033091F2
:101850007903232B41F4209102013091030130934D
:101860007903209378032091000130910101211523
:10187000310541F42DB73EB7409104015091050167
:10188000241B350BE0917803F0917903E217F307FD
:10189000A0F42E1B3F0B2817390778F0AC014E5FE0
:1018A0005F4F2417350748F04E0F5F1F50937903A1
:1018B00040937803819391939FCFF0E0E0E09CCF39
:1018C000CF93DF930097E9F0FC01329713821282E5
:1018D000A0917A03B0917B03ED0130E020E01097F6
:1018E000A1F420813181820F931F209178033091E0
:1018F00079032817390709F061C0F0937903E09361
:101900007803DF91CF910895EA01CE17DF07E8F55C
:101910004A815B819E0141155105B1F7E901FB83C5
:10192000EA8349915991C40FD51FEC17FD0761F463
:10193000808191810296840F951FE90199838883A4
:10194000828193819B838A83F0E0E0E012968D91FF
:101950009C9113970097B9F52D913C911197CD016A
:101960000296820F931F20917803309179032817F4
:10197000390739F6309751F510927B0310927A03AC
:10198000B0937903A0937803BCCFD383C283408103
:101990005181840F951FC817D90761F44E5F5F4FBF
:1019A00088819981480F591F518340838A819B8187
:1019B000938382832115310509F0B0CFF0937B0327
:1019C000E0937A039ECFFD01DC01C0CF1382128227
:1019D000D7CFB0E0A0E0EFEEFCE00C94670B8C01F9
:1019E000009751F4CB010E94C40B8C01C801CDB704
:1019F000DEB7E0E10C94830BFC01E60FF71F9C01BE
:101A000022503109E217F30708F49DC0D901CD91A6
:101A1000DC911197C617D70798F0C530D10530F380
:101A2000CE0104978617970708F3C61BD70B22979A
:101A3000C193D1936D937C93CF010E94600CD6CF5C
:101A40005B01AC1ABD0A4C018C0E9D1EA0917A035D
:101A5000B0917B03512C412CF12CE12C109731F5E6
:101A600080917803909179038815990509F05CC0FD
:101A70004616570608F058C0809100019091010168
:101A8000009741F48DB79EB7409104015091050134
:101A9000841B950BE817F90708F055C0F0937903FC
:101AA000E0937803F90171836083A0CF8D919C91BD
:101AB000119712966C90129713967C901397A81515
:101AC000B90559F56C0142E0C40ED11CCA14DB04FF
:101AD00020F1AC014A195B09DA011296159780F0E2
:101AE0006282738251834083D9016D937C93E114A8
:101AF000F10471F0D7011396FC93EE93129776CF11
:101B000022968C0F9D1FF90191838083F301EFCF03
:101B1000F0937B03E0937A0369CF4816590608F4E3
:101B20002C017D01D3019ACFCB010E94C40B7C0113
:101B3000009749F0AE01B8010E94A60DC8010E94AD
:101B4000600C870153CF10E000E050CFFB01DC01B7
:101B500002C001900D9241505040D8F70895FB010A
:101B6000DC0101900D920020E1F7089510E0C2E63B
:101B7000D0E004C0FE010E94BE0B2196C336D107FF
:061B8000C9F7F894FFCF45
:101B860000007C038000000000003601A000CD00AC
:101B96008301FE00DC00F000427574746F6E2070E5
:101BA6007265737365642E000D0A00427574746F56
:101BB6006E2072656C65617365642C2068656C6463
:081BC60020666F723A20000056
:107E0000112484B714BE81FFF0D085E080938100F7
:107E100082E08093C00088E18093C10086E0809377
:107E2000C20080E18093C4008EE0C9D0259A86E02C
:107E300020E33CEF91E0309385002093840096BBD3
:107E4000B09BFECF1D9AA8958150A9F7CC24DD24C4
:107E500088248394B5E0AB2EA1E19A2EF3E0BF2EE7
:107E6000A2D0813461F49FD0082FAFD0023811F036
:107E7000013811F484E001C083E08DD089C08234E0
:107E800011F484E103C0853419F485E0A6D080C0E4
:107E9000853579F488D0E82EFF2485D0082F10E0AE
:107EA000102F00270E291F29000F111F8ED06801E7
:107EB0006FC0863521F484E090D080E0DECF843638
:107EC00009F040C070D06FD0082F6DD080E0C81688
:107ED00080E7D80618F4F601B7BEE895C0E0D1E017
:107EE00062D089930C17E1F7F0E0CF16F0E7DF06D8
:107EF00018F0F601B7BEE89568D007B600FCFDCFD4
:107F0000A601A0E0B1E02C9130E011968C91119780
:107F100090E0982F8827822B932B1296FA010C0160
:107F200087BEE89511244E5F5F4FF1E0A038BF0790
:107F300051F7F601A7BEE89507B600FCFDCF97BE46
:107F4000E89526C08437B1F42ED02DD0F82E2BD052
:107F50003CD0F601EF2C8F010F5F1F4F84911BD097
:107F6000EA94F801C1F70894C11CD11CFA94CF0C13
:107F7000D11C0EC0853739F428D08EE10CD085E9AC
:107F80000AD08FE07ACF813511F488E018D01DD067
:107F900080E101D065CF982F8091C00085FFFCCF94
:107FA0009093C60008958091C00087FFFCCF809118
:107FB000C00084FD01C0A8958091C6000895E0E648
:107FC000F0E098E1908380830895EDDF803219F02E
:107FD00088E0F5DFFFCF84E1DECF1F93182FE3DFCA
:107FE0001150E9F7F2DF1F91089580E0E8DFEE27F6
:047FF000FF270994CA
:027FFE00040479
:0400000300007E007B
:00000001FF