:100000000C9459000C9481000C9481000C94810094
:100010000C9481000C9481000C9481000C9481005C
:100020000C9481000C9481000C9481000C9481004C
:100030000C9481000C9481000C9481000C9481003C
:100040000C9498010C9481000C9481000C94810014
:100050000C9481000C9481000C9481000C9481001C
:100060000C94E2010C94810000000000250028009F
:100070002B00040404040404040402020202020229
:10008000030303030303010204081020408001025C
:1000900004081020010204081020000000080002DB
:1000A0000100000304070000000000000000FD0242
:1000B0005C0311241FBECFEFD8E0DEBFCDBF11E03F
:1000C000A0E0B1E0E4E3F9E002C005900D92A630B3
:1000D000B107D9F721E0A6E0B1E001C01D92AB382D
:1000E000B207E1F710E0C8E5D0E004C02197FE01B7
:1000F0000E946203C735D107C9F70E9412030C940E
:100100008D040C94000090E0FC01E656FF4F249112
:10011000FC01EA57FF4F3491FC01EE58FF4FE49188
:10012000EE23C9F0222339F0233001F1A8F4213065
:1001300019F1223029F1F0E0EE0FFF1FE859FF4FCF
:10014000A591B4918FB7F894EC91611126C03095C8
:100150003E233C938FBF08952730A9F02830C9F083
:10016000243049F7809180008F7D03C0809180000A
:100170008F7780938000DFCF84B58F7784BDDBCF0E
:1001800084B58F7DFBCF8091B0008F778093B000D6
:10019000D2CF8091B0008F7DF9CF3E2BDACF209166
:1001A0002D01260F3327331F21323105ECF4209126
:1001B0005101FC0190E080E0243069F082E0089574
:1001C000A0912D012191AC01435F5E4FA40FB52F8B
:1001D000B11D2C930196861798F380912D01680F1D
:1001E00060932D0180E0089581E0089508958FEFD8
:1001F0009FEF08958FEF9FEF08958091060190E0A3
:100200009195819591090895CF93DF93CB01EA01F0
:10021000642F0E94CF00CE01DF91CF910895CF933C
:10022000DF931F92CDB7DEB7698361E0CE010196FF
:100230000E94CF0081E090E00F90DF91CF91089570
:1002400090E080E008951F93CF93DF9385ED809336
:10025000BC008091090190910A01A0910B01B0911D
:100260000C010796A11DB11D23E0B695A7959795A2
:1002700087952A95D1F72091BC0024FD03C01092E8
:10028000510152C04091090150910A0160910B0146
:1002900070910C01452B462B472B69F30097A10564
:1002A000B10541F02AE22A95F1F700C00197A109B2
:1002B000B109E1CF80910801C1E0C0930701882313
:1002C00099F1D091B8001091BA008091BC008A7B5E
:1002D0008093BC0060E082E10E94830060E083E1E3
:1002E0000E94830010925101C09353011092520159
:1002F00061E082E10E94830061E083E10E9483006B
:100300008091B9008E7F8093B9008091B9008D7F74
:100310008093B90088E48093B80085E48093BC00A2
:100320001093BA00D093B800DF91CF911F91089538
:100330001F920F920FB60F9211242F933F938F931A
:100340009F93AF93BF9380917C0190917D01A09189
:100350007E01B0917F0130917B0123E0230F2D3787
:1003600058F50196A11DB11D20937B0180937C015E
:1003700090937D01A0937E01B0937F0180917701DE
:1003800090917801A0917901B0917A010196A11D17
:10039000B11D8093770190937801A0937901B09378
:1003A0007A01BF91AF919F918F913F912F910F90C3
:1003B0000FBE0F901F90189526E8230F0296A11DDF
:1003C000B11DD2CF1F920F920FB60F9211242F930F
:1003D0003F934F935F936F937F938F939F93AF93CD
:1003E000BF93EF93FF938091B900887F803609F423
:1003F0004AC0F0F5883209F4A5C018F5803109F437
:1004000099C0B8F4882309F4F5C0883009F492C083
:10041000FF91EF91BF91AF919F918F917F916F91DC
:100420005F914F913F912F910F900FBE0F901F90B2
:100430001895883109F486C0803251F780935001B5
:1004400014C0803409F49BC040F48033B9F388337E
:10045000F9F68093500185ECAEC0803509F483C075
:10046000883509F494C0883499F60E942301D0CFCE
:10047000883909F48AC038F5883729F050F488366D
:1004800011F0803729F683E08093510110924F01DB
:1004900055C0883809F479C0803919F0803809F0DE
:1004A000B7CF80914F01803208F06FC0E0914F01CB
:1004B00081E08E0F80934F018091BB00F0E0E15D01
:1004C000FE4F80833BC0803B39F0D0F4803A09F482
:1004D00077C0883A09F09CCF84E080935101109254
:1004E0002E0110922D01F0E0E0E0099580912D01A0
:1004F00081110FC081E080932D0110920D0109C080
:10050000803C09F4A8CF883C09F4A5CF883B09F0CA
:100510007FCFE0912E0181E08E0F80932E01F0E0DD
:10052000E35FFE4F80818093BB0090912E0180910C
:100530002D0129C0809176018093BB0085EC8093CA
:10054000BC0066CF9091750180917401981758F5A1
:10055000E091750181E08E0F80937501F0E0EC5A17
:10056000FE4F8081E9CFE091750181E08E0F80938D
:1005700075018091BB00F0E0EC5AFE4F80839091B2
:100580007501809174019817C8F285E8D8CFE09181
:10059000750181E08E0F809375018091BB00F0E0C2
:1005A000EC5AFE4F80838091530181115ECF81E030
:1005B0008093520184EA8093BC001092510128CFAD
:1005C00085EC8093BC001092510180914F018032E4
:1005D00030F4E0914F01F0E0E15DFE4F1082609158
:1005E0004F0170E08FE291E0F0E0E0E009951092B9
:1005F0004F010ECF1092500138CFE0E8F1E01082A9
:10060000128211822FB7F89480917C0190917D0124
:10061000A0917E01B0917F012FBF83839483A58336
:10062000B6830895789484B5826084BD84B5816072
:1006300084BD85B5826085BD85B5816085BD8091AD
:100640006E00816080936E00109281008091810025
:10065000826080938100809181008160809381001D
:10066000809180008160809380008091B1008460DF
:100670008093B1008091B00081608093B000809140
:100680007A00846080937A0080917A0082608093FF
:100690007A0080917A00816080937A0080917A005C
:1006A000806880937A001092C100C0E0D0E020976B
:1006B000F1F30E940000FBCF8091810190918201B3
:1006C0000C940404EE0FFF1F0590F491E02D0994A3
:1006D0000F931F93CF93DF938230910510F482E044
:1006E00090E0E0918901F0918A0130E020E0B0E0F3
:1006F000A0E0309799F42115310509F44AC0281B70
:10070000390B24303105D8F58A819B81611571053B
:1007100089F1FB0193838283FE0111C040815181E5
:100720000281138148175907E0F04817590799F4D7
:10073000109761F012960C93129713961C933296B1
:10074000CF01DF91CF911F910F91089500938901FF
:1007500010938A01F4CF2115310551F04217530748
:1007600038F0A901DB019A01BD01DF01F801C1CF19
:10077000EF01F9CF90938A0180938901CDCFFE01DB
:10078000E20FF31F8193919322503109398328831B
:10079000D7CF2091870130918801232B41F42091FC
:1007A0000201309103013093880120938701209149
:1007B0000001309101012115310541F42DB73EB7FB
:1007C0004091040150910501241B350BE0918701F4
:1007D000F0918801E217F307A0F42E1B3F0B2817B6
:1007E000390778F0AC014E5F5F4F2417350748F0AA
:1007F0004E0F5F1F5093880140938701819391931F
:100800009FCFF0E0E0E09CCFCF93DF930097E9F03B
:10081000FC01329713821282A0918901B0918A0162
:10082000ED0130E020E01097A1F420813181820FAA
:10083000931F20918701309188012817390709F00B
:1008400061C0F0938801E0938701DF91CF91089513
:10085000EA01CE17DF07E8F54A815B819E01411569
:100860005105B1F7E901FB83EA8349915991C40F1E
:10087000D51FEC17FD0761F4808191810296840FEA
:10088000951FE90199838883828193819B838A8361
:10089000F0E0E0E012968D919C9113970097B9F5E6
:1008A0002D913C911197CD010296820F931F2091BB
:1008B0008701309188012817390739F6309751F5AB
:1008C00010928A0110928901B0938801A093870148
:1008D000BCCFD383C28340815181840F951FC81739
:1008E000D90761F44E5F5F4F88819981480F591F86
:1008F000518340838A819B819383828321153105B3
:1009000009F0B0CFF0938A01E09389019ECFFD01F9
:10091000DC01C0CF13821282D7CF10E0C8E5D0E04F
:1009200004C0FE010E9462032196C935D107C9F7B0
:04093000F894FFCF69
:0609340000008B018000B1
:00000001FF
