:100000000C945D000C9485000C9485000C94850084
:100010000C9485000C9485000C9485000C9485004C
:100020000C9485000C9485000C9485000C94670555
:100030000C9485000C9485000C9485000C9485002C
:100040000C941D050C9485000C94EB040C94C504D1
:100050000C9485000C9485000C9485000C9485000C
:100060000C9485000C9485000000000025002800F9
:100070002B000000000023002600290004040404D3
:100080000404040402020202020203030303030342
:10009000010204081020408001020408102001021F
:1000A00004081020000000080002010000030407FB
:1000B0000000000000000000A60511241FBECFEFC5
:1000C000D8E0DEBFCDBF22E0A4E6B1E001C01D92C2
:1000D000AC33B207E1F711E0A0E0B1E0EEE5F2E108
:1000E00002C005900D92A436B107D9F710E0CDE516
:1000F000D0E004C02197FE010E943507CC35D1071E
:10010000C9F70E9403060C942D090C940000AF92CD
:10011000BF92CF92DF92EF92FF920F931F93CF93F4
:10012000DF936C017B018B01040F151FEB015E0156
:10013000AE18BF08C017D10759F06991D601ED91EB
:10014000FC910190F081E02DC6010995892B79F78A
:10015000C501DF91CF911F910F91FF90EF90DF903C
:10016000CF90BF90AF900895CF93DF93FC0144816F
:1001700055816081718185E791E00E948700EC01E3
:1001800042E050E066E371E085E791E00E9487007D
:100190008C0F9D1FDF91CF910895FC01538D448DED
:1001A000252F30E0842F90E0821B930B541710F022
:1001B000CF96089501970895FC01918D828D98172F
:1001C00061F0A28DAE0FBF2FB11D5D968C91928D07
:1001D0009F5F9F73928F90E008958FEF9FEF089538
:1001E000FC01918D828D981731F0828DE80FF11D01
:1001F000858D90E008958FEF9FEF0895FC01918D1C
:10020000228D892F90E0805C9F4F821B91098F7314
:100210009927089585E791E00E94FE0021E0892B4F
:1002200009F420E0822F089580E090E0892B29F0E6
:100230000E940A0181110C9400000895FC01A48D14
:10024000A80FB92FB11DA35ABF4F2C91848D90E0F8
:1002500001968F739927848FA689B7892C93A089DB
:10026000B1898C91837080648C93938D848D981365
:1002700006C00288F389E02D80818F7D80830895F8
:10028000EF92FF920F931F93CF93DF93EC0181E0E6
:10029000888F9B8D8C8D98131AC0E889F98980818D
:1002A00085FF15C09FB7F894EE89FF896083E889C0
:1002B000F98980818370806480839FBF81E090E0B2
:1002C000DF91CF911F910F91FF90EF900895F62E3F
:1002D0000B8D10E00F5F1F4F0F731127E02E8C8DD9
:1002E0008E110CC00FB607FCFACFE889F98980811E
:1002F00085FFF5CFCE010E941E01F1CFEB8DEC0FF3
:10030000FD2FF11DE35AFF4FF0829FB7F8940B8F3A
:10031000EA89FB8980818062CFCFCF93DF93EC01A4
:10032000888D8823B9F0AA89BB89E889F9898C91DD
:1003300085FD03C0808186FD0DC00FB607FCF7CF99
:100340008C9185FFF2CF808185FFEDCFCE010E9499
:100350001E01E9CFDF91CF910895833081F028F419
:10036000813099F08230A9F008958730A9F0883063
:10037000C9F08430B1F4809180008F7D03C08091FA
:1003800080008F7780938000089584B58F7784BD37
:10039000089584B58F7DFBCF8091B0008F778093D7
:1003A000B00008958091B0008F7DF9CFCF93DF9397
:1003B000282F30E0F901EC55FF4F8491F901E05707
:1003C000FF4FD491F901E458FF4FC491CC23A1F021
:1003D00081110E94AD01EC2FF0E0EE0FFF1FEE58EF
:1003E000FF4FA591B491EC91ED2381E090E009F4E9
:1003F00080E0DF91CF91089580E090E0FACFDC01BA
:10040000ED91FC910190F081E02D0994EF92FF9223
:100410000F931F93CF938C017B01C0E0D8011496FA
:100420008C911497C81780F48C2F90E0880F991F37
:100430001296ED91FC91E80FF91F0190F081E02DEB
:10044000C7010995CF5FEACFCF911F910F91FF9020
:10045000EF900895DC01ED91FC910190F081E02D89
:100460000994DC011296ED91FC91309729F00190EE
:10047000F081E02DCB01099408950F931F93CF9342
:10048000DF93FC012089213031F1EC0187850E9446
:10049000D6012E85892B21F121602E872E85422FB2
:1004A00050E0CA0195958795822780FF14C08E0180
:1004B0000F5E1F4FB801CE0120FF14C002960E94AC
:1004C0003102B801CE010A960E9431028E8580FF6A
:1004D0000BC082608E87DF91CF911F910F9108959D
:1004E0002E7FDBCF0696EBCF8D7FF4CF1F93CF937C
:1004F000DF93FC012089213029F5278530E0F901BF
:10050000EC55FF4F8491F901E057FF4FD491F90169
:10051000E458FF4FC491CC23A9F0162F81110E94FB
:10052000AD01EC2FF0E0EE0FFF1FE859FF4FA59152
:10053000B4918FB7F894EC91111108C0D095DE23D7
:10054000DC938FBFDF91CF911F910895DE2BF8CF01
:10055000FC0187850E94D60121E0892B09F420E067
:10056000822F08950F931F93CF93DF93EC0188811F
:100570009981009759F02A813B812617370730F07F
:1005800081E0DF91CF911F910F9108958B016F5FF3
:100590007F4F0E946008009759F0998388831B83DE
:1005A0000A832C813D81232B59F7FC011082E8CF6F
:1005B00080E0E7CFCF93DF93EC01888199810097AA
:1005C00011F00E94D707198218821D821C821B829B
:1005D0001A82DF91CF910895CF92DF92EF92FF922E
:1005E0000F931F93CF93DF93CDB7DEB7A1970FB6CD
:1005F000F894DEBF0FBECDBF8C01CB01BA01F8016C
:100600001182108213821282158214822AE0AE01B6
:100610004F5F5F4F6A010E94CC06F60101900020F7
:10062000E9F731977F01EC18FD08B701C8010E9476
:10063000B202811112C0C8010E94DA02A1960FB65F
:10064000F894DEBF0FBECDBFDF91CF911F910F9108
:10065000FF90EF90DF90CF900895F801F582E4824B
:10066000B601808191810E942609E8CFEF92FF9226
:100670000F931F93CF93DF938C017B01EB010990C4
:100680000020E9F72197C61BD70BBE010E94B202DA
:10069000811109C0C801DF91CF911F910F91FF9087
:1006A000EF900C94DA02F801D583C483B7018081FE
:1006B0009181DF91CF911F910F91FF90EF900C945A
:1006C0002609EF92FF920F931F93CF93DF93EC01D4
:1006D000FB01E080F180E114F10411F10481158146
:1006E00001151105A9F08C819D81080F191FB80112
:1006F000CE010E94B202882399F0288139818C8131
:100700009D81B701820F931F0E9426091D830C83D0
:10071000CE01DF91CF911F910F91FF90EF9008953F
:10072000CE010E94DA02F4CFFC0180819181009712
:1007300011F00C94D7070895CF93DF93CDB7DEB7B0
:100740002C970FB6F894DEBF0FBECDBF409171015C
:10075000509172016091730170917401CE010796FE
:100760000E94EC021A8219821C821B821E821D8248
:1007700069E371E0CE0101960E943603BE01695F14
:100780007F4FCE0101960E9461030E94B400CE010A
:1007900001960E949403CE0107960E9494032C9622
:1007A0000FB6F894DEBF0FBECDBFDF91CF91089595
:1007B000CF93DF93CDB7DEB72C970FB6F894DEBF9B
:1007C0000FBECDBF409171015091720160917301D4
:1007D00070917401CE0107960E94EC021A82198270
:1007E0001C821B821E821D8268E471E0CE0101968C
:1007F0000E943603BE01695F7F4FCE0101960E94C1
:1008000061030E94B400CE0101960E949403CE01C0
:1008100007960E9494032C960FB6F894DEBF0FBE85
:10082000CDBFDF91CF910895CF93DF93CDB7DEB7E2
:100830002C970FB6F894DEBF0FBECDBF409171016B
:10084000509172016091730170917401CE0107960D
:100850000E94EC021A8219821C821B821E821D8257
:1008600066E571E0CE0101960E943603BE01695F24
:100870007F4FCE0101960E9461030E94B400CE0119
:1008800001960E949403CE0107960E9494032C9631
:100890000FB6F894DEBF0FBECDBFDF91CF910895A4
:1008A0007F928F929F92AF92BF92CF92DF92EF9200
:1008B000FF920F931F93CF93DF93EC015B017C803A
:1008C000711019C082E090E00E943B079B838A83ED
:1008D000FC01B182A08281E08C83DF91CF911F91D6
:1008E0000F91FF90EF90DF90CF90BF90AF909F90CF
:1008F0008F907F900895872C912C7401FFEFEF1A51
:10090000FF0AEE0CFF1CC7010E943B076C01880C1C
:10091000991C6A817B81A401C6010E941D09C7013F
:100920000E943B078C019B838A83A701B6010E942A
:100930001D09080D191DF801B182A08273947C82F3
:10094000C601DF91CF911F910F91FF90EF90DF9043
:10095000CF90BF90AF909F908F907F900C94D707CF
:100960000F931F93CF93DF938C01EB0182E090E014
:100970000E943B07F80193838283FC01D183C083EB
:10098000DF91CF911F910F9108951F920F920FB693
:100990000F9211242F933F934F935F936F937F9305
:1009A0008F939F93AF93BF93EF93FF9385E791E06E
:1009B0000E941E01FF91EF91BF91AF919F918F9186
:1009C0007F916F915F914F913F912F910F900FBE4B
:1009D0000F901F9018951F920F920FB60F9211242F
:1009E0002F938F939F93EF93FF93E0918501F09165
:1009F00086018081E0918B01F0918C0182FD1BC00A
:100A0000908180918E018F5F8F7320918F0182176B
:100A100041F0E0918E01F0E0EB58FE4F958F80930E
:100A20008E01FF91EF919F918F912F910F900FBEAB
:100A30000F901F9018958081F4CF1F920F920FB6E0
:100A40000F9211242F933F938F939F93AF93BF9354
:100A50008091690190916A01A0916B01B0916C0144
:100A60003091680123E0230F2D3758F50196A11D21
:100A7000B11D209368018093690190936A01A0934E
:100A80006B01B0936C018091640190916501A0911C
:100A90006601B09167010196A11DB11D80936401AB
:100AA00090936501A0936601B0936701BF91AF91E8
:100AB0009F918F913F912F910F900FBE0F901F909C
:100AC000189526E8230F0296A11DB11DD2CF1F92C3
:100AD0000F920FB60F9211242F933F934F935F9372
:100AE0006F937F938F939F93AF93BF93EF93FF93F6
:100AF000E2E1F2E080819181A281B3810196A11DA2
:100B0000B11D80839183A283B38386839783A0875B
:100B1000B18766E172E08CE192E00E94310266E109
:100B200072E080E292E00E940602FF91EF91BF9195
:100B3000AF919F918F917F916F915F914F913F9175
:100B40002F910F900FBE0F901F901895E5E7F1E0E1
:100B50001382128288EE93E0A0E0B0E08483958354
:100B6000A683B7838AE091E09183808385EC90E04F
:100B70009587848784EC90E09787868780EC90E067
:100B8000918B808B81EC90E0938B828B82EC90E058
:100B9000958B848B86EC90E0978B868B118E128ED2
:100BA000138E148EE2E1F2E010821182128213821F
:100BB000F583E483168217821086118686E291E01F
:100BC0009387828715861486118A108A2CE131E07A
:100BD00037872687128AE5E2F2E020E331E03183AD
:100BE0002083938382831582148297838683118660
:100BF0001086938782871586148682E08787808B8C
:100C0000F28BE18B0895789484B5826084BD84B5BD
:100C1000816084BD85B5826085BD85B5816085BDF7
:100C200080916E00816080936E00109281008091AF
:100C30008100826080938100809181008160809337
:100C40008100809180008160809380008091B1005C
:100C500084608093B1008091B00081608093B00087
:100C600080917A00846080937A0080917A0082601B
:100C700080937A0080917A00816080937A008091DD
:100C80007A00806880937A001092C100E09185011B
:100C9000F091860182E08083E0918101F0918201F0
:100CA0001082E0918301F091840181E080831092B1
:100CB0008D01E0918901F0918A0186E08083E091C5
:100CC0008701F0918801808180618083E0918701B4
:100CD000F0918801808188608083E0918701F091A4
:100CE0008801808180688083E0918701F09188018C
:100CF00080818F7D80836CE973E08BE292E00E94BB
:100D00002A0268ED73E087E292E00E942A0264E121
:100D100074E08FE292E00E942A02C0E0D0E02FB798
:100D2000F8948091690190916A01A0916B01B09152
:100D30006C012FBF8093710190937201A093730196
:100D4000B093740140916D0150916E0160916F01FB
:100D5000709170018C019D01041B150B260B370B44
:100D6000B901A8014F3051056105710560F080930C
:100D70006D0190936E01A0936F01B093700185E2B5
:100D800092E00E943D02209751F20E940A018823BE
:100D900031F20E940000C3CFBB27FA01A62F6217D1
:100DA000710581059105330B30FB66F0AA27660FAC
:100DB000771F881F991FAA1FA21710F0A21B639507
:100DC0003850A9F7A05DAA3308F0A95DA19336F7C2
:100DD000B111B1931082CA010C94EE06DC01FC0142
:100DE000672F71917723E1F7329704C07C916D935F
:100DF00070836291AE17BF07C8F308952F923F9298
:100E00004F925F926F927F928F929F92AF92BF921A
:100E1000CF92DF92EF92FF920F931F93CF93DF93C6
:100E2000CDB7DEB7CA1BDB0B0FB6F894DEBF0FBE23
:100E3000CDBF09942A88398848885F846E847D8470
:100E40008C849B84AA84B984C884DF80EE80FD8072
:100E50000C811B81AA81B981CE0FD11D0FB6F894E8
:100E6000DEBF0FBECDBFED010895EE0FFF1F059051
:100E7000F491E02D09940F931F93CF93DF93823069
:100E8000910510F482E090E0E0913A02F0913B028B
:100E900030E020E0B0E0A0E0309799F42115310572
:100EA00009F44AC0281B390B24303105D8F58A8152
:100EB0009B816115710589F1FB0193838283FE019A
:100EC00011C0408151810281138148175907E0F018
:100ED0004817590799F4109761F012960C931297DE
:100EE00013961C933296CF01DF91CF911F910F91F2
:100EF000089500933A0210933B02F4CF2115310577
:100F000051F04217530738F0A901DB019A01BD01E6
:100F1000DF01F801C1CFEF01F9CF90933B0280933D
:100F20003A02CDCFFE01E20FF31F8193919322503D
:100F3000310939832883D7CF209138023091390283
:100F4000232B41F4209102013091030130933902A7
:100F500020933802209100013091010121153105C3
:100F600041F42DB73EB74091040150910501241B77
:100F7000350BE0913802F0913902E217F307A0F443
:100F80002E1B3F0B2817390778F0AC014E5F5F4FDF
:100F90002417350748F04E0F5F1F509339024093D6
:100FA0003802819391939FCFF0E0E0E09CCFCF9304
:100FB000DF930097E9F0FC01329713821282A0912F
:100FC0003A02B0913B02ED0130E020E01097A1F42D
:100FD00020813181820F931F209138023091390294
:100FE0002817390709F061C0F0933902E0933802FD
:100FF000DF91CF910895EA01CE17DF07E8F54A8126
:101000005B819E0141155105B1F7E901FB83EA833C
:1010100049915991C40FD51FEC17FD0761F48081E8
:1010200091810296840F951FE901998388838281BB
:1010300093819B838A83F0E0E0E012968D919C91EE
:1010400013970097B9F52D913C911197CD01029618
:10105000820F931F209138023091390228173907E7
:1010600039F6309751F510923B0210923A02B09344
:101070003902A0933802BCCFD383C283408151810F
:10108000840F951FC817D90761F44E5F5F4F8881A1
:101090009981480F591F518340838A819B81938393
:1010A00082832115310509F0B0CFF0933B02E09324
:1010B0003A029ECFFD01DC01C0CF13821282D7CF4E
:1010C000B0E0A0E0E6E6F8E00C9400078C010097A1
:1010D00051F4CB010E943B078C01C801CDB7DEB7AC
:1010E000E0E10C941C07FC01E60FF71F9C01225065
:1010F0003109E217F30708F49DC0D901CD91DC91C5
:101100001197C617D70798F0C530D10530F3CE0137
:1011100004978617970708F3C61BD70B2297C1932E
:10112000D1936D937C93CF010E94D707D6CF5B01FB
:10113000AC1ABD0A4C018C0E9D1EA0913A02B091D2
:101140003B02512C412CF12CE12C109731F5809170
:101150003802909139028815990509F05CC046164D
:10116000570608F058C08091000190910101009746
:1011700041F48DB79EB74091040150910501841B45
:10118000950BE817F90708F055C0F0933902E09382
:101190003802F90171836083A0CF8D919C911197E2
:1011A00012966C90129713967C901397A815B90518
:1011B00059F56C0142E0C40ED11CCA14DB0420F1C5
:1011C000AC014A195B09DA011296159780F0628228
:1011D000738251834083D9016D937C93E114F104B0
:1011E00071F0D7011396FC93EE93129776CF229667
:1011F0008C0F9D1FF90191838083F301EFCFF09352
:101200003B02E0933A0269CF4816590608F42C01D4
:101210007D01D3019ACFCB010E943B077C0100974F
:1012200049F0AE01B8010E941D09C8010E94D7070C
:10123000870153CF10E000E050CFFB01DC0102C07A
:1012400001900D9241505040D8F70895FB01DC0108
:0E12500001900D920020E1F70895F894FFCF71
:10125E0000003C0280000000000040018700CD002D
:10126E008D01FE00DC00F0000000000050040602BC
:10127E00FF0100000000B00431022A02000000004D
:10128E00A80276023D020D0A0046616C6C696E671B
:10129E002074696D653A2000526973696E67207417
:1012AE00696D653A20004368616E67652074696DEB
:0412BE00653A20006D
:00000001FF
