:100000000C9462000C948A000C948A000C948A0070
:100010000C948A000C948A000C948A000C948A0038
:100020000C948A000C948A000C948A000C948A0028
:100030000C948A000C948A000C948A000C948A0018
:100040000C947E040C948A000C944C040C942604AA
:100050000C948A000C948A000C948A000C948A00F8
:100060000C948A000C948A000000000023002600F3
:10007000290000000008000201000003040700003E
:1000800000000000000000000000250028002B00F8
:1000900000000000240027002A00040404040404D3
:1000A0000404020202020202030303030303010227
:1000B00004081020408001020408102001020408F6
:1000C0001020C80411241FBECFEFD8E0DEBFCDBF83
:1000D00022E0ACE9B1E001C01D92A036B207E1F721
:1000E00011E0A0E0B1E0E0E8F1E102C005900D927E
:1000F000AC39B107D9F710E0C2E6D0E004C02197CF
:10010000FE010E94C606C136D107C9F70E945B05F1
:100110000C94BE080C940000AF92BF92CF92DF9275
:10012000EF92FF920F931F93CF93DF936C017B01AC
:100130008B01040F151FEB015E01AE18BF08C0173D
:10014000D10759F06991D601ED91FC910190F081B0
:10015000E02DC6010995892B79F7C501DF91CF9173
:100160001F910F91FF90EF90DF90CF90BF90AF90D5
:100170000895FC01538D448D252F30E0842F90E0AD
:10018000821B930B541710F0CF9608950197089592
:10019000FC01918D828D981761F0A28DAE0FBF2F5B
:1001A000B11D5D968C91928D9F5F9F73928F90E0B1
:1001B00008958FEF9FEF0895FC01918D828D981720
:1001C00031F0828DE80FF11D858D90E008958FEF5D
:1001D0009FEF0895FC01918D228D892F90E0805C26
:1001E0009F4F821B91098F739927089585EA91E0AB
:1001F0000E94EA0021E0892B09F420E0822F089573
:1002000080E090E0892B29F00E94F60081110C9487
:1002100000000895FC01A48DA80FB92FB11DA35AA9
:10022000BF4F2C91848D90E001968F739927848F16
:10023000A689B7892C93A089B1898C918370806439
:100240008C93938D848D981306C00288F389E02DDA
:1002500080818F7D80830895EF92FF920F931F938B
:10026000CF93DF93EC0181E0888F9B8D8C8D981369
:100270001AC0E889F989808185FF15C09FB7F89475
:10028000EE89FF896083E889F989808183708064C1
:1002900080839FBF81E090E0DF91CF911F910F910C
:1002A000FF90EF900895F62E0B8D10E00F5F1F4F1B
:1002B0000F731127E02E8C8D8E110CC00FB607FC2A
:1002C000FACFE889F989808185FFF5CFCE010E94B8
:1002D0000A01F1CFEB8DEC0FFD2FF11DE35AFF4F1B
:1002E000F0829FB7F8940B8FEA89FB898081806246
:1002F000CFCFCF93DF93EC01888D8823B9F0AA8903
:10030000BB89E889F9898C9185FD03C0808186FDD0
:100310000DC00FB607FCF7CF8C9185FFF2CF80811F
:1003200085FFEDCFCE010E940A01E9CFDF91CF9189
:10033000089590E0FC01EE58FF4F2491FC01E25536
:10034000FF4F3491FC01E656FF4FE491EE23C1F1DB
:10035000222339F02330E9F090F4213001F12230EA
:1003600011F1F0E0EE0FFF1FE859FF4FA591B49196
:10037000EC91E32381E090E029F580E008952730B7
:10038000A9F02830C9F0243061F7809180008F7D7A
:1003900003C0809180008F7780938000E2CF84B586
:1003A0008F7784BDDECF84B58F7DFBCF8091B00089
:1003B0008F778093B000D5CF8091B0008F7DF9CF3B
:1003C00080E090E008958FB7F8944091A10150919A
:1003D000A2016091A3017091A4018FBF809152028C
:1003E00090915302A0915402B0915502481B590BB1
:1003F0006A0B7B0B8091480290914902B0E0A0E02B
:10040000481759076A077B0708F4A3C010925A02DD
:1004100010925B022FB7F8948091A1019091A201F4
:10042000A091A301B091A4012FBF80935202909399
:100430005302A0935402B09355028091470288233F
:1004400009F452C0809146020E949901892B31F42F
:1004500081E080934A0210924C022DC010924A0211
:1004600080914D028823B9F381E080934C02109271
:100470004D0210924B022FB7F8948091A1019091F8
:10048000A201A091A301B091A4012FBF20914E021F
:1004900030914F02821B930B909357028093560228
:1004A0001092590210925802E0914202F0914302D8
:1004B000309709F0099580914A02882391F0809144
:1004C0004D02882301F180915802909159022091A8
:1004D000480230914902820F931F909359028093F2
:1004E000580210924B020895809146020E94990191
:1004F00021E0009709F420E020934A02892B09F0BB
:10050000AACFAECF099481E080934D0280934B0235
:1005100010925702109256021092590210925802ED
:100520002FB7F8948091A1019091A201A091A3010D
:10053000B091A4012FBF80934E0290934F02A093DD
:100540005002B0935102E0914402F091450230977D
:10055000C9F6089542E050E068E171E085EA91E073
:100560000C948C00CF93DF93FC0101900020E9F7FD
:100570003197AF01481B590BBC0185EA91E00E94FD
:100580008C00EC010E94AA028C0F9D1FDF91CF917D
:1005900008958BE191E00C94B202CF93DF93FC01BC
:1005A000448155816081718185EA91E00E948C00CF
:1005B000EC010E94AA028C0F9D1FDF91CF9108953C
:1005C0000F931F93CF93DF93EC018881998100975C
:1005D00059F02A813B812617370730F081E0DF91FF
:1005E000CF911F910F9108958B016F5F7F4F0E94F4
:1005F000F107009759F0998388831B830A832C8124
:100600003D81232B59F7FC011082E8CF80E0E7CF32
:10061000CF93DF93EC0188819981009711F00E94BC
:100620006807198218821D821C821B821A82DF9140
:10063000CF910895CF92DF92EF92FF920F931F9385
:10064000CF93DF93CDB7DEB761970FB6F894DEBFD7
:100650000FBECDBF8C01CB01F80111821082138235
:100660001282158214824AE09E012F5F3F4F69017A
:10067000B9010E946506F60101900020E9F7319763
:100680007F01EC18FD08B701C8010E94E00281114A
:1006900012C0C8010E94080361960FB6F894DEBF2D
:1006A0000FBECDBFDF91CF911F910F91FF90EF90C3
:1006B000DF90CF900895F801F582E482B601808141
:1006C00091810E94B708E8CFEF92FF920F931F939A
:1006D000CF93DF938C017B01EB0109900020E9F7B8
:1006E0002197C61BD70BBE010E94E002811109C0F1
:1006F000C801DF91CF911F910F91FF90EF900C9463
:100700000803F801D583C483B70180819181DF910B
:10071000CF911F910F91FF90EF900C94B708EF923B
:10072000FF920F931F93CF93DF93EC01FB01E080C7
:10073000F180E114F10411F1048115810115110515
:10074000A9F08C819D81080F191FB801CE010E946C
:10075000E002882399F0288139818C819D81B7013D
:10076000820F931F0E94B7081D830C83CE01DF9177
:10077000CF911F910F91FF90EF900895CE010E94AD
:100780000803F4CFFC0180819181009711F00C9453
:1007900068070895EF92FF920F931F93CF93DF9313
:1007A000CDB7DEB72C970FB6F894DEBF0FBECDBF26
:1007B000BC01CE0107960E941A031A8219821C827C
:1007C0001B821E821D826EE371E0CE0101960E94A3
:1007D0006403BE01695F7F4FCE0101960E948F03C3
:1007E0008C01FC01E480F580F6E1EF0EF11CB7010D
:1007F0000E94E002882331F1F80120813181848157
:1008000095816AE571E0820F931F0E94B708F80195
:10081000F582E482C8010E94CD02CE0101960E94B9
:10082000C203CE0107960E94C2032C960FB6F8941D
:10083000DEBF0FBECDBFDF91CF911F910F91FF9013
:10084000EF900895C8010E940803E4CF1F920F9211
:100850000FB60F9211242F933F934F935F936F9393
:100860007F938F939F93AF93BF93EF93FF9385EA0B
:1008700091E00E940A01FF91EF91BF91AF919F918A
:100880008F917F916F915F914F913F912F910F9039
:100890000FBE0F901F9018951F920F920FB60F92D8
:1008A00011242F938F939F93EF93FF93E091B501C2
:1008B000F091B6018081E091BB01F091BC0182FD15
:1008C0001BC090818091BE018F5F8F732091BF010B
:1008D000821741F0E091BE01F0E0EB55FE4F958F9D
:1008E0008093BE01FF91EF919F918F912F910F9077
:1008F0000FBE0F901F9018958081F4CF1F920F921A
:100900000FB60F9211242F933F938F939F93AF9322
:10091000BF938091A1019091A201A091A301B091F8
:10092000A4013091A00123E0230F2D3758F5019643
:10093000A11DB11D2093A0018093A1019093A2015C
:10094000A093A301B093A40180919C0190919D017B
:10095000A0919E01B0919F010196A11DB11D8093B0
:100960009C0190939D01A0939E01B0939F01BF9124
:10097000AF919F918F913F912F910F900FBE0F904C
:100980001F90189526E8230F0296A11DB11DD2CF06
:10099000CF93DF931092A8011092A70188EE93E005
:1009A000A0E0B0E08093A9019093AA01A093AB01CD
:1009B000B093AC018AE091E09093A6018093A501E9
:1009C00085EC90E09093B2018093B10184EC90E0CB
:1009D0009093B4018093B30180EC90E09093B601C2
:1009E0008093B50181EC90E09093B8018093B701BA
:1009F00082EC90E09093BA018093B90186EC90E08C
:100A00009093BC018093BB011092BE011092BF0174
:100A10001092C0011092C101109243021092420242
:100A2000109245021092440282E08093460281E0D7
:100A3000809347028EE190E09093490280934802B0
:100A400010924E0210924F021092500210925102D8
:100A500010925202109253021092540210925502B8
:100A60001092570210925602109259021092580298
:100A7000E0EBF0E02491ECE9F0E084918823C1F010
:100A800090E0880F991FFC01E057FF4FC591D4916A
:100A9000FC01EA57FF4FA591B4919FB7F8943881B4
:100AA000822F809583238883EC91E22BEC939FBF68
:100AB000DF91CF910895CF93DF93CDB7DEB72C9719
:100AC0000FB6F894DEBF0FBECDBF789484B58260B8
:100AD00084BD84B5816084BD85B5826085BD85B5E2
:100AE000816085BD80916E00816080936E00109260
:100AF00081008091810082608093810080918100DB
:100B0000816080938100809180008160809380006B
:100B10008091B10084608093B1008091B0008160C9
:100B20008093B00080917A00846080937A008091F5
:100B30007A00826080937A0080917A00816080934D
:100B40007A0080917A00806880937A001092C100C8
:100B5000E091B501F091B60182E08083E091B101AE
:100B6000F091B2011082E091B301F091B40181E003
:100B700080831092BD01E091B901F091BA0186E045
:100B80008083E091B701F091B8018081806180831A
:100B9000E091B701F091B801808188608083E09195
:100BA000B701F091B801808180688083E091B7013E
:100BB000F091B80180818F7D808389EC92E09093E1
:100BC0004502809344028AEC93E090934302809321
:100BD000420280E0E82E80E0F82E11E00E94E3015E
:100BE00080915A0281110AC010935A0280914B02DF
:100BF000882321F081E791E00E94B2020E94E30184
:100C000080914A02882331F1609158027091590213
:100C1000CE0101960E941A0318861F821A86198631
:100C20001C861B8661E871E0CE0107960E94640372
:100C3000BE016F5F7F4FCE0107960E948F030E9417
:100C4000CD02CE0107960E94C203CE0101960E94FA
:100C5000C203D4CF80915B0281112BC010935B0241
:100C600080914C02882329F16091560270915702BD
:100C7000CE0101960E941A0318861F821A861986D1
:100C80001C861B866EE371E0CE0107960E9464030A
:100C9000BE016F5F7F4FCE0107960E948F030E94B7
:100CA000CD02CE0107960E94C203CE0101960E949A
:100CB000C203E114F10409F491CF0E94F6008823E5
:100CC00009F48CCF0E94000089CFBB27FB01552778
:100CD000AA27880F991FAA1FA41710F0A41B839599
:100CE0005051B9F7A05DAA3308F0A95DA193009710
:100CF00079F7B111B1931192CB010C947F06DC010D
:100D0000FC01672F71917723E1F7329704C07C9142
:100D10006D9370836291AE17BF07C8F308952F9249
:100D20003F924F925F926F927F928F929F92AF927B
:100D3000BF92CF92DF92EF92FF920F931F93CF93C8
:100D4000DF93CDB7DEB7CA1BDB0B0FB6F894DEBF5F
:100D50000FBECDBF09942A88398848885F846E8485
:100D60007D848C849B84AA84B984C884DF80EE80CF
:100D7000FD800C811B81AA81B981CE0FD11D0FB6D8
:100D8000F894DEBF0FBECDBFED010895EE0FFF1F3B
:100D90000590F491E02D09940F931F93CF93DF9367
:100DA0008230910510F482E090E0E0915E02F091D3
:100DB0005F0230E020E0B0E0A0E0309799F4211528
:100DC000310509F44AC0281B390B24303105D8F508
:100DD0008A819B816115710589F1FB01938382836F
:100DE000FE0111C0408151810281138148175907CA
:100DF000E0F04817590799F4109761F012960C9398
:100E0000129713961C933296CF01DF91CF911F91C9
:100E10000F91089500935E0210935F02F4CF2115A5
:100E2000310551F04217530738F0A901DB019A014F
:100E3000BD01DF01F801C1CFEF01F9CF90935F024F
:100E400080935E02CDCFFE01E20FF31F8193919359
:100E50002250310939832883D7CF20915C02309109
:100E60005D02232B41F42091020130910301309364
:100E70005D0220935C022091000130910101211557
:100E8000310541F42DB73EB7409104015091050161
:100E9000241B350BE0915C02F0915D02E217F30731
:100EA000A0F42E1B3F0B2817390778F0AC014E5FDA
:100EB0005F4F2417350748F04E0F5F1F50935D02B8
:100EC00040935C02819391939FCFF0E0E0E09CCF50
:100ED000CF93DF930097E9F0FC01329713821282DF
:100EE000A0915E02B0915F02ED0130E020E010972A
:100EF000A1F420813181820F931F20915C023091F7
:100F00005D022817390709F061C0F0935D02E09394
:100F10005C02DF91CF910895EA01CE17DF07E8F573
:100F20004A815B819E0141155105B1F7E901FB83BF
:100F3000EA8349915991C40FD51FEC17FD0761F45D
:100F4000808191810296840F951FE901998388839E
:100F5000828193819B838A83F0E0E0E012968D91F9
:100F60009C9113970097B9F52D913C911197CD0164
:100F70000296820F931F20915C0230915D02281728
:100F8000390739F6309751F510925F0210925E02E0
:100F9000B0935D02A0935C02BCCFD383C283408137
:100FA0005181840F951FC817D90761F44E5F5F4FB9
:100FB00088819981480F591F518340838A819B8181
:100FC000938382832115310509F0B0CFF0935F023E
:100FD000E0935E029ECFFD01DC01C0CF138212823E
:100FE000D7CFB0E0A0E0E7EFF7E00C9491068C01DA
:100FF000009751F4CB010E94CC068C01C801CDB7FB
:10100000DEB7E0E10C94AD06FC01E60FF71F9C0192
:1010100022503109E217F30708F49DC0D901CD91A0
:10102000DC911197C617D70798F0C530D10530F37A
:10103000CE0104978617970708F3C61BD70B229794
:10104000C193D1936D937C93CF010E946807D6CF53
:101050005B01AC1ABD0A4C018C0E9D1EA0915E0274
:10106000B0915F02512C412CF12CE12C109731F5FD
:1010700080915C0290915D028815990509F05CC031
:101080004616570608F058C0809100019091010162
:10109000009741F48DB79EB740910401509105012E
:1010A000841B950BE817F90708F055C0F0935D0213
:1010B000E0935C02F90171836083A0CF8D919C91D4
:1010C000119712966C90129713967C901397A8150F
:1010D000B90559F56C0142E0C40ED11CCA14DB04F9
:1010E00020F1AC014A195B09DA011296159780F0DC
:1010F0006282738251834083D9016D937C93E114A2
:10110000F10471F0D7011396FC93EE93129776CF0A
:1011100022968C0F9D1FF90191838083F301EFCFFD
:10112000F0935F02E0935E0269CF4816590608F417
:101130002C017D01D3019ACFCB010E94CC067C010A
:10114000009749F0AE01B8010E94AE08C8010E94A4
:101150006807870153CF10E000E050CFFB01DC01AE
:1011600002C001900D9241505040D8F70895FB0104
:10117000DC0101900D920020E1F70895F894FFCF73
:10118000000060028000000000002C018C00B9000B
:101190007901EA00C800DC000D0A00427574746F22
:1011A0006E20707265737365642C206F6E5072656B
:1011B000737328292063616C6C6261636B004275F4
:1011C00074746F6E2072656C65617365642C206841
:1011D000656C6420666F723A20002E206F6E526537
:1011E0006C6561736528292063616C6C6261636B57
:1011F00000427574746F6E20707265737365642E2F
:1012000000427574746F6E20686173206265656E4C
:0C1210002068656C6420666F723A200054
:00000001FF
