:100000000C9463000C948B000C948B000C948B006C
:100010000C948B000C948B000C948B000C948B0034
:100020000C948B000C948B000C948B000C948B0024
:100030000C948B000C948B000C948B000C948B0014
:100040000C94E6040C948B000C94B4040C948E0471
:100050000C948B000C948B000C948B000C948B00F4
:100060000C948B000C948B000000000023002600F1
:10007000290000000008000201000003040700003E
:1000800000000000000000000000250028002B00F8
:1000900000000000240027002A00040404040404D3
:1000A0000404020202020202030303030303010227
:1000B00004081020408001020408102001020408F6
:1000C00010203005B80611241FBECFEFD8E0DEBFE8
:1000D000CDBF22E0A8EBB1E001C01D92A939B20763
:1000E000E1F711E0A0E0B1E0ECE4F2E102C005903C
:1000F0000D92A83BB107D9F710E0C2E6D0E004C0EA
:100100002197FE010E942107C136D107C9F70E943D
:1001100066050C9419090C940000AF92BF92CF921F
:10012000DF92EF92FF920F931F93CF93DF936C01B7
:100130007B018B01040F151FEB015E01AE18BF0898
:10014000C017D10759F06991D601ED91FC9101904A
:10015000F081E02DC6010995892B79F7C501DF9162
:10016000CF911F910F91FF90EF90DF90CF90BF90B4
:10017000AF900895FC01538D448D252F30E0842FDE
:1001800090E0821B930B541710F0CF9608950197BF
:100190000895FC01918D828D981761F0A28DAE0FAC
:1001A000BF2FB11D5D968C91928D9F5F9F73928F33
:1001B00090E008958FEF9FEF0895FC01918D828D5F
:1001C000981731F0828DE80FF11D858D90E008952C
:1001D0008FEF9FEF0895FC01918D228D892F90E084
:1001E000805C9F4F821B91098F739927089584EC3F
:1001F00091E00E94EB0021E0892B09F420E0822F9E
:10020000089580E090E0892B29F00E94F700811189
:100210000C9400000895FC01A48DA80FB92FB11D06
:10022000A35ABF4F2C91848D90E001968F7399272C
:10023000848FA689B7892C93A089B1898C9183700A
:1002400080648C93938D848D981306C00288F38903
:10025000E02D80818F7D80830895EF92FF920F9330
:100260001F93CF93DF93EC0181E0888F9B8D8C8D62
:1002700098131AC0E889F989808185FF15C09FB756
:10028000F894EE89FF896083E889F9898081837019
:10029000806480839FBF81E090E0DF91CF911F91C8
:1002A0000F91FF90EF900895F62E0B8D10E00F5FE9
:1002B0001F4F0F731127E02E8C8D8E110CC00FB6BF
:1002C00007FCFACFE889F989808185FFF5CFCE0157
:1002D0000E940B01F1CFEB8DEC0FFD2FF11DE35AC6
:1002E000FF4FF0829FB7F8940B8FEA89FB898081DA
:1002F0008062CFCFCF93DF93EC01888D8823B9F054
:10030000AA89BB89E889F9898C9185FD03C0808120
:1003100086FD0DC00FB607FCF7CF8C9185FFF2CF9D
:10032000808185FFEDCFCE010E940B01E9CFDF91E7
:10033000CF91089590E0FC01EE58FF4F2491FC010D
:10034000E255FF4F3491FC01E656FF4FE491EE2356
:10035000C1F1222339F02330E9F090F4213001F18A
:10036000223011F1F0E0EE0FFF1FE859FF4FA59189
:10037000B491EC91E32381E090E029F580E00895C9
:100380002730A9F02830C9F0243061F7809180002F
:100390008F7D03C0809180008F7780938000E2CFB3
:1003A00084B58F7784BDDECF84B58F7DFBCF809100
:1003B000B0008F778093B000D5CF8091B0008F7D53
:1003C000F9CF80E090E00895CF93DF93EC018FB7F1
:1003D000F8944091BD015091BE016091BF017091B0
:1003E000C0018FBF88899989AA89BB89481B590B8D
:1003F0006A0B7B0B8E819F81B0E0A0E04817590704
:100400006A077B0708F44CC0188E198E2FB7F89432
:100410008091BD019091BE01A091BF01B091C0013A
:100420002FBF888B998BAA8BBB8B8D818823D9F1A9
:100430008C810E949A01892B21F481E088871A8699
:1004400020C018868B858823D1F381E08A871B869C
:1004500019862FB7F8948091BD019091BE01A091AB
:10046000BF01B091C0012FBF2C853D85821B930B2E
:100470009D8B8C8B1F8A1E8AE881F981309709F049
:1004800009958885882359F08B858823B9F08E8952
:100490009F892E813F81820F931F9F8B8E8B1986A0
:1004A000DF91CF9108958C810E949A0121E00097FD
:1004B00009F420E02887892B11F6C4CF81E08B87CF
:1004C00089871D8A1C8A1F8A1E8A2FB7F8948091FB
:1004D000BD019091BE01A091BF01B091C0012FBF9D
:1004E0008C879D87AE87BF87EA81FB813097C1F2F9
:1004F000DF91CF910994AC012091C301E091C1013A
:10050000F091C20190E0291759F06191719164173F
:10051000750721F4DF0112971D921C929F5FF3CFA4
:10052000089542E050E068E171E084EC91E00C94C1
:100530008D00CF93DF93FC0101900020E9F7319704
:10054000AF01481B590BBC0184EC91E00E948D0067
:10055000EC010E9491028C0F9D1FDF91CF910895B5
:100560008BE191E00C949902CF93DF93FC014481DD
:1005700055816081718184EC91E00E948D00EC01D5
:100580000E9491028C0F9D1FDF91CF9108958F9251
:100590009F92AF92BF92CF92DF92EF92FF920F9312
:1005A0001F93CF93DF938C01C62FFC011182108221
:1005B000138212826483FF24F394F5828EE190E02B
:1005C000978386831486158616861786108A118A65
:1005D000128A138A158A148A178A168AD091C3013F
:1005E000D1113DC082E090E00E9427079093C201A4
:1005F0008093C101FC0111830083F092C301D0E01C
:10060000FE01E255FF4F2491FE01E656FF4F849113
:100610008823C1F090E0880F991FFC01E057FF4F3D
:10062000C591D491FC01EA57FF4FA591B4919FB7B2
:10063000F8943881822F809583238883EC91E22B74
:10064000EC939FBFDF91CF911F910F91FF90EF909F
:10065000DF90CF90BF90AF909F908F900895ED2E38
:10066000F12C5701AA0CBB1CC5010E9427076C0185
:10067000FAE1DF9F400111246091C1017091C20134
:10068000A4010E940909C7010196880F991F0E94C1
:1006900027077C019093C2018093C101A401B60198
:1006A0000E940909EA0CFB1CF70111830083DF5F3C
:1006B000D093C301C114D10409F4A1CFC6010E9493
:1006C000C3079DCFCF93DF93EC0188819981009779
:1006D00011F00E94C307198218821D821C821B829E
:1006E0001A82DF91CF910895FC018081918100975A
:1006F00011F00C94C30708950F931F93CF93DF93CA
:10070000EC0188819981009759F02A813B81261755
:10071000370730F081E0DF91CF911F910F9108955D
:100720008B016F5F7F4F0E944C08009759F09983AF
:1007300088831B830A832C813D81232B59F7FC017D
:100740001082E8CF80E0E7CFEF92FF920F931F93E4
:10075000CF93DF93EC01FB01E080F180E114F10421
:1007600011F10481158101151105A9F08C819D817C
:10077000080F191FB801CE010E947C03882399F04D
:10078000288139818C819D81B701820F931F0E943E
:1007900012091D830C83CE01DF91CF911F910F9120
:1007A000FF90EF900895CE010E946203F4CFEF9284
:1007B000FF920F931F93CF93DF93EC017B018A018C
:1007C000BA010E947C0381110BC0CE010E9462031A
:1007D000CE01DF91CF911F910F91FF90EF9008957F
:1007E0001D830C83B701888199810E941209F0CF83
:1007F000EF92FF920F931F93CF93DF93CDB7DEB7A6
:1008000061970FB6F894DEBF0FBECDBF8C01CB0150
:10081000F8011182108213821282158214824AE03A
:100820009E012F5F3F4F7901B9010E94C006F70179
:1008300001900020E9F73197AF014E195F09B70128
:10084000C8010E94D70361960FB6F894DEBF0FBEB1
:10085000CDBFDF91CF911F910F91FF90EF90089541
:10086000EF92FF920F931F93CF93DF93CDB7DEB735
:100870002C970FB6F894DEBF0FBECDBFBC01CE01E2
:1008800007960E94F8031A8219821C821B821E821C
:100890001D824BE150E06EE371E0CE0101960E94B3
:1008A000D703BE01695F7F4FCE0101960E94A4036A
:1008B0008C01FC01E480F580F6E1EF0EF11CB7013C
:1008C0000E947C03882331F1F801208131818481E9
:1008D00095816AE571E0820F931F0E941209F80169
:1008E000F582E482C8010E94B402CE0101960E9402
:1008F0007403CE0107960E9474032C960FB6F894E9
:10090000DEBF0FBECDBFDF91CF911F910F91FF9042
:10091000EF900895C8010E946203E4CF1F920F92E6
:100920000FB60F9211242F933F934F935F936F93C2
:100930007F938F939F93AF93BF93EF93FF9384EC39
:1009400091E00E940B01FF91EF91BF91AF919F91B8
:100950008F917F916F915F914F913F912F910F9068
:100960000FBE0F901F9018951F920F920FB60F9207
:1009700011242F938F939F93EF93FF93E091D401D2
:10098000F091D5018081E091DA01F091DB0182FDE7
:100990001BC090818091DD018F5F8F732091DE01FC
:1009A000821741F0E091DD01F0E0EC53FE4F958FAE
:1009B0008093DD01FF91EF919F918F912F910F9087
:1009C0000FBE0F901F9018958081F4CF1F920F9249
:1009D0000FB60F9211242F933F938F939F93AF9352
:1009E000BF938091BD019091BE01A091BF01B091D4
:1009F000C0013091BC0123E0230F2D3758F501963B
:100A0000A11DB11D2093BC018093BD019093BE0137
:100A1000A093BF01B093C0018091B8019091B9013A
:100A2000A091BA01B091BB010196A11DB11D8093A7
:100A3000B8019093B901A093BA01B093BB01BF91E3
:100A4000AF919F918F913F912F910F900FBE0F907B
:100A50001F90189526E8230F0296A11DB11DD2CF35
:100A6000E4ECF1E01382128288EE93E0A0E0B0E0C3
:100A700084839583A683B7838AE091E09183808302
:100A800085EC90E09587848784EC90E09787868753
:100A900080EC90E0918B808B81EC90E0938B828B4B
:100AA00082EC90E0958B848B86EC90E0978B868B24
:100AB000118E128E138E148E64E08BE792E00E94EA
:100AC000C70262E081E692E00C94C702CF93DF9305
:100AD000CDB7DEB72C970FB6F894DEBF0FBECDBFF3
:100AE000789484B5826084BD84B5816084BD85B509
:100AF000826085BD85B5816085BD80916E00816015
:100B000080936E00109281008091810082608093BA
:100B100081008091810081608093810080918000BC
:100B20008160809380008091B10084608093B100E7
:100B30008091B00081608093B00080917A008460E1
:100B400080937A0080917A00826080937A0080910D
:100B50007A00816080937A0080917A008068809327
:100B60007A001092C100E091D401F091D50182E0A9
:100B70008083E091D001F091D1011082E091D20107
:100B8000F091D30181E080831092DC01E091D801E3
:100B9000F091D90186E08083E091D601F091D701F0
:100BA000808180618083E091D601F091D7018081BE
:100BB00088608083E091D601F091D70180818068C0
:100BC0008083E091D601F091D70180818F7D808371
:100BD00084EC91E00E947A0181E791E00E94990201
:100BE00061E672E0CE0101960E94F80318861F822A
:100BF0001A8619861C861B8642E150E06AE771E07E
:100C0000CE0107960E94D703BE016F5F7F4FCE01D2
:100C100007960E94A4030E94B402CE0107960E9488
:100C20007403CE0101960E94740380EB92E09093CE
:100C300064028093630280E394E090936202809365
:100C4000610230E0E32E30E0F32E01E010E080910D
:100C5000C301181790F4812F90E0880F991FE0913D
:100C6000C101F091C201E80FF91F808191810097C5
:100C700011F00E94E4011F5FEACF80917902811197
:100C80000AC00093790280916A02882321F08DE8DE
:100C900091E00E94990281E692E00E94E401809135
:100CA0006902882341F16091770270917802CE0148
:100CB00001960E94F80318861F821A8619861C86E0
:100CC0001B864AE150E06DE971E0CE0107960E9473
:100CD000D703BE016F5F7F4FCE0107960E94A4032A
:100CE0000E94B402CE0107960E947403CE010196C1
:100CF0000E947403D0CF80917A0281112DC000939D
:100D00007A0280916B02882339F1609175027091AB
:100D10007602CE0101960E94F80318861F821A8679
:100D200019861C861B864BE150E06EE371E0CE0114
:100D300007960E94D703BE016F5F7F4FCE010796D3
:100D40000E94A4030E94B402CE0107960E9474037D
:100D5000CE0101960E947403E114F10409F476CFE8
:100D60000E94F700882309F471CF0E9400006ECF23
:100D700081E692E00E947B028BE792E00C947B027A
:100D8000BB27FB015527AA27880F991FAA1FA41765
:100D900010F0A41B83955051B9F7A05DAA3308F059
:100DA000A95DA193009779F7B111B1931192CB018D
:100DB0000C94DA06DC01FC01672F71917723E1F7CF
:100DC000329704C07C916D9370836291AE17BF0718
:100DD000C8F308952F923F924F925F926F927F9245
:100DE0008F929F92AF92BF92CF92DF92EF92FF923B
:100DF0000F931F93CF93DF93CDB7DEB7CA1BDB0BE7
:100E00000FB6F894DEBF0FBECDBF09942A8839888B
:100E100048885F846E847D848C849B84AA84B98492
:100E2000C884DF80EE80FD800C811B81AA81B9819E
:100E3000CE0FD11D0FB6F894DEBF0FBECDBFED01B2
:100E40000895EE0FFF1F0590F491E02D09940F9384
:100E50001F93CF93DF938230910510F482E090E0EE
:100E6000E0919702F091980230E020E0B0E0A0E03D
:100E7000309799F42115310509F44AC0281B390B24
:100E800024303105D8F58A819B816115710589F17E
:100E9000FB0193838283FE0111C040815181028155
:100EA000138148175907E0F04817590799F410972C
:100EB00061F012960C93129713961C933296CF0101
:100EC000DF91CF911F910F91089500939702109396
:100ED0009802F4CF2115310551F04217530738F02D
:100EE000A901DB019A01BD01DF01F801C1CFEF01CA
:100EF000F9CF9093980280939702CDCFFE01E20F35
:100F0000F31F819391932250310939832883D7CFDE
:100F10002091950230919602232B41F420910201F9
:100F200030910301309396022093950220910001A5
:100F3000309101012115310541F42DB73EB74091A3
:100F4000040150910501241B350BE0919502F091AD
:100F50009602E217F307A0F42E1B3F0B2817390760
:100F600078F0AC014E5F5F4F2417350748F04E0F05
:100F70005F1F5093960240939502819391939FCF68
:100F8000F0E0E0E09CCFCF93DF930097E9F0FC0125
:100F9000329713821282A0919702B0919802ED01CC
:100FA00030E020E01097A1F420813181820F931F5F
:100FB00020919502309196022817390709F061C0F7
:100FC000F0939602E0939502DF91CF910895EA01A4
:100FD000CE17DF07E8F54A815B819E014115510577
:100FE000B1F7E901FB83EA8349915991C40FD51FF9
:100FF000EC17FD0761F4808191810296840F951FA3
:10100000E90199838883828193819B838A83F0E0BD
:10101000E0E012968D919C9113970097B9F52D9170
:101020003C911197CD010296820F931F209195025A
:10103000309196022817390739F6309751F51092FA
:10104000980210929702B0939602A0939502BCCF9B
:10105000D383C28340815181840F951FC817D9075C
:1010600061F44E5F5F4F88819981480F591F51830A
:1010700040838A819B81938382832115310509F006
:10108000B0CFF0939802E09397029ECFFD01DC0170
:10109000C0CF13821282D7CFB0E0A0E0E2E5F8E043
:1010A0000C94EC068C01009751F4CB010E942707A9
:1010B0008C01C801CDB7DEB7E0E10C940807FC0154
:1010C000E60FF71F9C0122503109E217F30708F4DD
:1010D0009DC0D901CD91DC911197C617D70798F023
:1010E000C530D10530F3CE0104978617970708F372
:1010F000C61BD70B2297C193D1936D937C93CF01DD
:101100000E94C307D6CF5B01AC1ABD0A4C018C0EFE
:101110009D1EA0919702B0919802512C412CF12C68
:10112000E12C109731F580919502909196028815E7
:10113000990509F05CC04616570608F058C0809122
:10114000000190910101009741F48DB79EB7409145
:10115000040150910501841B950BE817F90708F06D
:1011600055C0F0939602E0939502F9017183608374
:10117000A0CF8D919C91119712966C901297139617
:101180007C901397A815B90559F56C0142E0C40E7F
:10119000D11CCA14DB0420F1AC014A195B09DA0145
:1011A0001296159780F06282738251834083D90131
:1011B0006D937C93E114F10471F0D7011396FC93C5
:1011C000EE93129776CF22968C0F9D1FF901918393
:1011D0008083F301EFCFF0939802E093970269CFF9
:1011E0004816590608F42C017D01D3019ACFCB0192
:1011F0000E9427077C01009749F0AE01B8010E94C8
:101200000909C8010E94C307870153CF10E000E01D
:1012100050CFFB01DC0102C001900D9241505040C3
:10122000D8F70895FB01DC0101900D920020E1F751
:10123000089510E0C2E6D0E004C0FE010E9421073C
:0C1240002196C336D107C9F7F894FFCF00
:10124C00000099028000000000002D018D00BA0002
:10125C007A01EB00C900DD000D0A00427574746F51
:10126C006E20707265737365642C206F6E5072659E
:10127C00737328292063616C6C6261636B00427527
:10128C0074746F6E2072656C65617365642C206874
:10129C00656C6420666F723A20002E206F6E52656A
:1012AC006C6561736528292063616C6C6261636B8A
:1012BC0000466C75736865643A00496E7374616EB0
:1012CC00636520616464726573733A2000427574BF
:1012DC00746F6E20707265737365642E0042757442
:1012EC00746F6E20686173206265656E2068656C32
:0812FC006420666F723A2000C5
:00000001FF
