:100000000C9463000C948B000C948B000C948B006C
:100010000C948B000C948B000C948B000C948B0034
:100020000C948B000C948B000C948B000C948B0024
:100030000C948B000C948B000C948B000C948B0014
:100040000C9467050C948B000C9435050C940F05EB
:100050000C948B000C948B000C948B000C948B00F4
:100060000C948B000C948B000000000024002700EF
:100070002A0000000000250028002B0000000000DE
:1000800023002600290004040404040404040202DA
:100090000202020203030303030301020408102007
:1000A0004080010204081020010204081020000012
:1000B0000008000201000003040700000000000027
:1000C0000000B1058E0811241FBECFEFD8E0DEBFBF
:1000D000CDBF11E0A0E0B1E0E0EDF3E102C005909A
:1000E0000D92A433B107D9F722E0A4E3B1E001C037
:1000F0001D92A233B207E1F710E0C2E6D0E004C0DF
:100100002197FE010E94A708C136D107C9F70E94B6
:100110000A070C94DB090C940000AF92BF92CF92B7
:10012000DF92EF92FF920F931F93CF93DF936C01B7
:100130007B018B01040F151FEB015E01AE18BF0898
:10014000C017D10759F06991D601ED91FC9101904A
:10015000F081E02DC6010995892B79F7C501DF9162
:10016000CF911F910F91FF90EF90DF90CF90BF90B4
:10017000AF900895FC01538D448D252F30E0842FDE
:1001800090E0821B930B541710F0CF9608950197BF
:100190000895FC01918D828D981761F0A28DAE0FAC
:1001A000BF2FB11D5D968C91928D9F5F9F73928F33
:1001B00090E008958FEF9FEF0895FC01918D828D5F
:1001C000981731F0828DE80FF11D858D90E008952C
:1001D0008FEF9FEF0895FC01918D228D892F90E084
:1001E000805C9F4F821B91098F739927089581E44A
:1001F00091E00E94EB0021E0892B09F420E0822F9E
:10020000089580E090E0892B29F00E94F700811189
:100210000C9400000895FC01A48DA80FB92FB11D06
:10022000A35ABF4F2C91848D90E001968F7399272C
:10023000848FA689B7892C93A089B1898C9183700A
:1002400080648C93938D848D981306C00288F38903
:10025000E02D80818F7D80830895EF92FF920F9330
:100260001F93CF93DF93EC0181E0888F9B8D8C8D62
:1002700098131AC0E889F989808185FF15C09FB756
:10028000F894EE89FF896083E889F9898081837019
:10029000806480839FBF81E090E0DF91CF911F91C8
:1002A0000F91FF90EF900895F62E0B8D10E00F5FE9
:1002B0001F4F0F731127E02E8C8D8E110CC00FB6BF
:1002C00007FCFACFE889F989808185FFF5CFCE0157
:1002D0000E940B01F1CFEB8DEC0FFD2FF11DE35AC6
:1002E000FF4FF0829FB7F8940B8FEA89FB898081DA
:1002F0008062CFCFCF93DF93EC01888D8823B9F054
:10030000AA89BB89E889F9898C9185FD03C0808120
:1003100086FD0DC00FB607FCF7CF8C9185FFF2CF9D
:10032000808185FFEDCFCE010E940B01E9CFDF91E7
:10033000CF910895833081F028F4813099F0823094
:10034000A9F008958730A9F08830C9F08430B1F45D
:10035000809180008F7D03C0809180008F77809393
:100360008000089584B58F7784BD089584B58F7D0E
:10037000FBCF8091B0008F778093B000089580917B
:10038000B0008F7DF9CFCF93DF93282F30E0F901B4
:10039000E255FF4F8491F901E656FF4FD491F901E0
:1003A000EA57FF4FC491CC23A1F081110E949A011A
:1003B000EC2FF0E0EE0FFF1FE458FF4FA591B49132
:1003C000EC91ED2381E090E009F480E0DF91CF91A2
:1003D000089580E090E0FACF1F93CF93DF93282F0A
:1003E00030E0F901E255FF4F8491F901E656FF4FE5
:1003F000D491F901EA57FF4FC491CC23A9F0162FED
:1004000081110E949A01EC2FF0E0EE0FFF1FEE58D1
:10041000FF4FA591B4918FB7F894EC91111108C0DA
:10042000D095DE23DC938FBFDF91CF911F9108958C
:10043000DE2BF8CFCF93DF9300D000D000D0CDB724
:10044000DEB787E00E94C30161E0892B09F060E01C
:1004500087E026960FB6F894DEBF0FBECDBFDF91C2
:10046000CF910C94EC01CF93DF9390E0FC01E65622
:10047000FF4F24918A579F4FFC0184918823C9F034
:1004800090E0880F991FFC01E859FF4FA591B491A6
:10049000FC01EE58FF4FC591D49161110DC09FB77B
:1004A000F8948C91209582238C938881282328832B
:1004B0009FBFDF91CF910895623051F49FB7F894B8
:1004C0003C91822F809583238C93E8812E2BEFCF54
:1004D0008FB7F894EC912E2B2C938FBFEACF2FB7C8
:1004E000F8946091390170913A0180913B019091AB
:1004F0003C012FBF08952F923F924F925F926F92CF
:100500007F928F929F92AF92BF92CF92DF92EF92A3
:10051000FF920F931F93CF93DF9300D000D000D0B2
:10052000CDB7DEB78F3F910509F4FFCF8B017C017A
:1005300080903D0190903E01A0903F01B09040011D
:1005400085E1682E80913D0190913E01A0913F018F
:10055000B091400188199909AA09BB09843F9140CB
:10056000A105B10508F082C0712C80910D027816AA
:1005700008F075C00E946F0260933D0170933E01C8
:1005800080933F0190934001769C60011124A091DB
:100590000E02B0910F02AC0DBD1D2C912E151F0443
:1005A00009F44CC011962C911197222309F446C0EE
:1005B0001F962D913D914D915C9152971B012C01FD
:1005C000221A330A440A550AA201910112962D906B
:1005D0003D904D905C9015972215330544055505C7
:1005E00068F11F966D937D938D939C9352975396CC
:1005F000ED91FC915497462F69837A838B839C837A
:10060000BE83AD835A816B817C818A2F9E8109953F
:10061000E0910E02F0910F02EC0DFD1D8781908597
:10062000A185B2850196A11DB11D87839087A18701
:10063000B2872681222369F0223011F0739495CF7E
:10064000438554856585768584179507A607B70782
:10065000A9F711821782108611861286EFCF011535
:10066000110509F46FCFF80109956CCF26960FB6E6
:10067000F894DEBF0FBECDBFDF91CF911F910F91D8
:10068000FF90EF90DF90CF90BF90AF909F908F90B2
:100690007F906F905F904F903F902F900895CF93F1
:1006A000DF9300D000D000D0CDB7DEB761E08DE0A1
:1006B0000E94EC0165E873E090E080E00E947B021C
:1006C00060E08DE00E94EC0165E873E090E080E07E
:1006D00026960FB6F894DEBF0FBECDBFDF91CF9147
:1006E0000C947B02DC01ED91FC910190F081E02DF6
:1006F0000994DC011296ED91FC91309729F001905C
:10070000F081E02DCB0109940895CF92DF92EF9212
:10071000FF921F93CF93DF9310E08091E0011817B1
:1007200008F085C0812F90E0880F991FE091DE01CD
:10073000F091DF01E80FF91FC081D181209709F402
:1007400065C00E946F02CA8CDB8CEC8CFD8CAB0107
:10075000BC014C195D096E097F0989859A85B0E055
:10076000A0E0481759076A077B0708F44FC08B853C
:100770008F7C8B870E946F026A8F7B8F8C8F9D8FFF
:100780008B8586FF45C088850E94C301892B09F0AF
:1007900045C08B8581608B878B8580FD42C083FF40
:1007A00040C0857F84608B870E946F0228893989C9
:1007B000621B730B7F876E87BE01645F7F4FCE0124
:1007C0000E9479038B858970893041F40E946F0201
:1007D00028893989621B730B7F876E878B8580FF21
:1007E00023C083FD21C08A608B870E946F02688BC3
:1007F000798B8A8B9B8B6E8B7F8B888F998FBE01B9
:100800006C5E7F4FCE0104960E9479031F5F85CFF7
:1008100088850E94C301892B09F0BBCF8B858E7F11
:10082000BACF8B7F8B87CECF8D7F8B87EFCFDF913A
:10083000CF911F91FF90EF90DF90CF9008950F938D
:100840001F93CF93DF938C01EB0182E090E00E9435
:10085000AD08F80193838283FC01D183C083DF91CB
:10086000CF911F910F9108958F929F92AF92BF9257
:10087000CF92DF92EF92FF921F93CF93DF93CDB78A
:10088000DEB765970FB6F894DEBF0FBECDBF6BA184
:1008900050910D02E0900E02F0900F02C7019701F7
:1008A00010E05117C9F12B5E3F4FF9017597408158
:1008B000461711F01F5FF5CF6BA325E1FE01B3963C
:1008C000DE01119601900D922A95E1F720E0521772
:1008D00089F0DC014596FC0175973081431711F0D2
:1008E0002F5FF5CF498385E1FE01319601900D928E
:1008F0008A95E1F765960FB6F894DEBF0FBECDBFBF
:10090000DF91CF911F91FF90EF90DF90CF90BF903C
:10091000AF909F908F9008951E3F60F7A12EB12C4D
:1009200025E1129F60011124C601C114D10411F404
:1009300081E090E00E94AD084C01C501F4010197EF
:10094000A8F01182128213821482158217821086F7
:100950001186128613861486158616861786108AC7
:10096000118A128A148A138A7596E9CFA601B701F3
:10097000C4010E94D20925E1C5010196AC01249F62
:10098000C001259F900D11240E94AD087C01FC013F
:1009900011821282138214821582178210861186A8
:1009A000128613861486158616861786108A118A73
:1009B000128A148A138A759651E0A51AB10840F775
:1009C000F0920F02E0920E02A6014F5F5F4FB4015A
:1009D000C7010E94D2098114910419F0C4010E9438
:1009E0004909D701AC0DBD1D85E1FE01B39601900B
:1009F0000D928A95E1F71F5F10930D027BCF4EE0B9
:100A000050E062E271E081E491E00E948D0042E0FA
:100A100050E061E371E081E491E00C948D001F925D
:100A20000F920FB60F9211242F933F934F935F9322
:100A30006F937F938F939F93AF93BF93EF93FF93A6
:100A400081E491E00E940B01FF91EF91BF91AF9182
:100A50009F918F917F916F915F914F913F912F91D6
:100A60000F900FBE0F901F9018951F920F920FB608
:100A70000F9211242F938F939F93EF93FF93E09105
:100A80005101F09152018081E0915701F09158019C
:100A900082FD1BC0908180915A018F5F8F732091DE
:100AA0005B01821741F0E0915A01F0E0EF5BFE4FED
:100AB000958F80935A01FF91EF919F918F912F9184
:100AC0000F900FBE0F901F9018958081F4CF1F924A
:100AD0000F920FB60F9211242F933F938F939F93F2
:100AE000AF93BF938091390190913A01A0913B015E
:100AF000B0913C013091380123E0230F2D3758F598
:100B00000196A11DB11D2093380180933901909366
:100B10003A01A0933B01B0933C0180913401909144
:100B20003501A0913601B09137010196A11DB11D8B
:100B30008093340190933501A0933601B09337012F
:100B4000BF91AF919F918F913F912F910F900FBEC9
:100B50000F901F90189526E8230F0296A11DB11D36
:100B6000D2CF8F929F92AF92BF92CF92DF92EF92AD
:100B7000FF920F931F93CF93109244011092430161
:100B800088EE93E0A0E0B0E08093450190934601A9
:100B9000A0934701B09348018AE091E0909342010D
:100BA0008093410185EC90E090934E0180934D013C
:100BB00084EC90E09093500180934F0180EC90E0A2
:100BC000909352018093510181EC90E090935401F5
:100BD0008093530182EC90E09093560180935501ED
:100BE00086EC90E0909358018093570110925A013F
:100BF00010925B0110925C0110925D0130E1C32EF6
:100C000032E0D32E8CE191E0909311028093100298
:100C10001092130210921202909315028093140204
:100C2000109217021092160283E0809318028EE150
:100C300090E090931A028093190210921F02109272
:100C40001E02109220021092210210922202109293
:100C5000230210921D0210921C0210922602109282
:100C60002702109228021092290210922502109257
:100C70002402C091E001C1119AC082E090E00E947C
:100C8000AD089093DF018093DE01FC01D182C08228
:100C900081E08093E00100E112E080911B0280641A
:100CA00080931B0262E083E00E94330210931D02D6
:100CB00000931C02109325020093240210920D024F
:100CC00010920F0210920E028DE092E090930C02AF
:100CD00080930B021092F6011092F7011092F80126
:100CE0001092F9011092FA011092FB01C1E0C09339
:100CF000FC011092FD011092FE011092FF01109272
:100D0000000210920102109202021092030210924D
:100D100004020E946F0260930502709306028093A2
:100D20000702909308028FE493E090930A02809365
:100D30000902C093E1011092E2018AEF90E0A0E085
:100D4000B0E08093E3019093E401A093E501B093B8
:100D5000E601C093E7011092E8011092E9011092B8
:100D6000EA011092EB011092EC011092ED01109249
:100D7000EE011092EF010E946F026093F0017093F8
:100D8000F1018093F2019093F3018AE192E0909354
:100D9000F5018093F401CF911F910F91FF90EF9097
:100DA000DF90CF90BF90AF909F908F9008950C2FC1
:100DB00010E05801AA0CBB1CC5010E94AD087C01C3
:100DC000FEE1CF9F400111246091DE017091DF01AF
:100DD000A4010E94D209C8010196880F991F0E94A0
:100DE000AD088C019093DF018093DE01A401B7016F
:100DF0000E94D2090A0D1B1DF801D182C082CF5F6B
:100E0000C093E001E114F10409F445CFC7010E9449
:100E1000490941CFCF93DF93CDB7DEB7E0970FB647
:100E2000F894DEBF0FBECDBF789484B5826084BDD8
:100E300084B5816084BD85B5826085BD85B58160DE
:100E400085BD80916E00816080936E00109281005C
:100E50008091810082608093810080918100816017
:100E600080938100809180008160809380008091D8
:100E7000B10084608093B1008091B0008160809364
:100E8000B00080917A00846080937A0080917A002B
:100E9000826080937A0080917A00816080937A00EA
:100EA00080917A00806880937A001092C100E0916E
:100EB0005101F091520182E08083E0914D01F09167
:100EC0004E011082E0914F01F091500181E080834A
:100ED00010925901E0915501F091560186E080830E
:100EE000E0915301F0915401808180618083E09111
:100EF0005301F0915401808188608083E091530117
:100F0000F0915401808180688083E0915301F091D9
:100F1000540180818F7D808361E08DE00E943302E7
:100F200061E087E00E9433026FEF74E084E192E0B9
:100F30000E94720385E1E6EFF1E0DE011196019077
:100F40000D928A95E1F78DB79EB745970FB6F89445
:100F50009EBF0FBE8DBFADB7BEB7119685E1FE0136
:100F6000319601900D928A95E1F70E94340485E153
:100F7000E1EEF1E0DE01569601900D928A95E1F7DF
:100F8000ADB7BEB755970FB6F894BEBF0FBEADBF95
:100F9000119685E1FE01769601900D928A95E1F712
:100FA0000E94340420910D0240913D0150913E0178
:100FB00060913F0170914001E0910E02F0910F02AB
:100FC0000FB6F894DEBF0FBECDBF80E091E02813CE
:100FD00082C085E1E82E90E0C92E90E0D92E0E94D3
:100FE00085030E946F0260933D0170933E018093E0
:100FF0003F019093400100910B0210910C020115EA
:10100000110509F47FC0D8018C91882309F47AC0B6
:10101000F12CF8018081F81608F074C0FE9C1001D4
:101020001124A181B281A20DB31D11968C9111974B
:10103000882309F44EC040903D0150903E016090DD
:101040003F01709040011F964D915D916D917C9193
:10105000529753014201841A950AA60AB70AB501AC
:10106000A40112968D909D90AD90BC901597481557
:1010700059056A057B0568F11F964D925D926D9248
:101080007C9252975396ED91FC915497442D4BA628
:101090005CA66DA67EA6B8ABAFA75CA56DA57EA528
:1010A0008A2F98A90995D8011196ED91FC91E20D2E
:1010B000F31D87819085A185B2850196A11DB11D83
:1010C00087839087A187B28726812223A9F02230C7
:1010D00051F0F3949ECF91834787508B618B728B35
:1010E0008F5F759674CF43855485658576858417A3
:1010F0009507A607B70769F7118217821086118630
:101100001286E7CFC114D10409F469CF0E94F70019
:10111000882309F464CF0E94000061CF10920C0272
:1011200010920B029091E001E091DE01F091DF015D
:1011300080E0981759F0219131912051324021F4EB
:10114000DF0112971D921C928F5FF3CF0895EE0F6F
:10115000FF1F0590F491E02D09940F931F93CF93F7
:10116000DF938230910510F482E090E0E09130024C
:10117000F091310230E020E0B0E0A0E0309799F447
:101180002115310509F44AC0281B390B24303105DB
:10119000D8F58A819B816115710589F1FB019383E3
:1011A0008283FE0111C04081518102811381481761
:1011B0005907E0F04817590799F4109761F0129613
:1011C0000C93129713961C933296CF01DF91CF9117
:1011D0001F910F9108950093300210933102F4CFC4
:1011E0002115310551F04217530738F0A901DB01F1
:1011F0009A01BD01DF01F801C1CFEF01F9CF909352
:10120000310280933002CDCFFE01E20FF31F8193B4
:1012100091932250310939832883D7CF20912E0210
:1012200030912F02232B41F42091020130910301D0
:1012300030932F0220932E02209100013091010162
:101240002115310541F42DB73EB74091040150916D
:101250000501241B350BE0912E02F0912F02E217BD
:10126000F307A0F42E1B3F0B2817390778F0AC01C9
:101270004E5F5F4F2417350748F04E0F5F1F5093A6
:101280002F0240932E02819391939FCFF0E0E0E0F4
:101290009CCFCF93DF930097E9F0FC013297138244
:1012A0001282A0913002B0913102ED0130E020E0D5
:1012B0001097A1F420813181820F931F20912E027B
:1012C00030912F022817390709F061C0F0932F02DF
:1012D000E0932E02DF91CF910895EA01CE17DF0748
:1012E000E8F54A815B819E0141155105B1F7E9019D
:1012F000FB83EA8349915991C40FD51FEC17FD0771
:1013000061F4808191810296840F951FE901998390
:101310008883828193819B838A83F0E0E0E0129648
:101320008D919C9113970097B9F52D913C91119750
:10133000CD010296820F931F20912E0230912F0231
:101340002817390739F6309751F51092310210926B
:101350003002B0932F02A0932E02BCCFD383C2835E
:1013600040815181840F951FC817D90761F44E5FE2
:101370005F4F88819981480F591F518340838A812B
:101380009B81938382832115310509F0B0CFF093BF
:101390003102E09330029ECFFD01DC01C0CF138209
:1013A0001282D7CFFB01DC0102C001900D924150A7
:1013B0005040D8F7089510E0C2E6D0E004C0FE0126
:1013C0000E94A7082196C336D107C9F7F894FFCF2A
:1013D000000032028000000000002D018D00BA00E4
:1013E0007A01EB00C900DD00000000001F04790352
:1013F0007203427574746F6E207075736865642E25
:04140000000D0A00D1
:00000001FF
