:100000000C9459000C9481000C9481000C94810094
:100010000C9481000C9481000C9481000C9481005C
:100020000C9481000C9481000C9481000C9481004C
:100030000C9481000C9481000C9481000C9481003C
:100040000C9495060C9481000C9463060C943D0668
:100050000C9481000C9481000C9481000C9481001C
:100060000C94DF060C94810000000000250028009D
:100070002B00040404040404040402020202020229
:10008000030303030303010204081020408001025C
:1000900004081020010204081020000000080002DB
:1000A0000100000304070000000000000000150824
:1000B000FE0711241FBECFEFD8E0DEBFCDBF24E086
:1000C000AAEFB1E001C01D92A634B207E1F711E03A
:1000D000A0E0B1E0E8E3FBE102C005900D92AA3F89
:1000E000B107D9F710E0C8E5D0E004C02197FE01C0
:1000F0000E94850BC735D107C9F70E94140A0C94DA
:100100008F0D0C940000AF92BF92CF92DF92EF92CE
:10011000FF920F931F93CF93DF936C017B018B01B1
:10012000040F151FEB015E01AE18BF08C017D10701
:1001300059F06991D601ED91FC910190F081E02D8B
:10014000C6010995892B79F7C501DF91CF911F91E0
:100150000F91FF90EF90DF90CF90BF90AF900895F8
:1001600008950895FC01538D448D252F30E0842F90
:1001700090E0821B930B541710F0CF9608950197CF
:100180000895FC01918D828D981761F0A28DAE0FBC
:10019000BF2FB11D5D968C91928D9F5F9F73928F43
:1001A00090E008958FEF9FEF0895FC01918D828D6F
:1001B000981731F0828DE80FF11D858D90E008953C
:1001C0008FEF9FEF0895FC01918D228D892F90E094
:1001D000805C9F4F821B91098F73992708958DEB47
:1001E00092E00E94E30021E0892B09F420E0822FB5
:1001F0000895FC01A48DA80FB92FB11DA35ABF4FBC
:100200002C91848D90E001968F739927848FA68915
:10021000B7892C93A089B1898C91837080648C9369
:10022000938D848D981306C00288F389E02D808118
:100230008F7D80830895EF92FF920F931F93CF934A
:10024000DF93EC0181E0888F9B8D8C8D98131AC011
:10025000E889F989808185FF15C09FB7F894EE89F8
:10026000FF896083E889F989808183708064808355
:100270009FBF81E090E0DF91CF911F910F91FF90A0
:10028000EF900895F62E0B8D10E00F5F1F4F0F7348
:100290001127E02E8C8D8E110CC00FB607FCFACF03
:1002A000E889F989808185FFF5CFCE010E94F900A8
:1002B000F1CFEB8DEC0FFD2FF11DE35AFF4FF082D4
:1002C0009FB7F8940B8FEA89FB8980818062CFCF3A
:1002D000CF93DF93EC01888D8823B9F0AA89BB897D
:1002E000E889F9898C9185FD03C0808186FD0DC068
:1002F0000FB607FCF7CF8C9185FFF2CF808185FF89
:10030000EDCFCE010E94F900E9CFDF91CF910895A2
:1003100090E0FC01E656FF4F2491FC01EA57FF4FA5
:100320003491FC01EE58FF4FE491EE23C9F02223F3
:1003300039F0233001F1A8F4213019F1223029F1EC
:10034000F0E0EE0FFF1FE859FF4FA591B4918FB772
:10035000F894EC91611126C030953E233C938FBFF9
:1003600008952730A9F02830C9F0243049F780914A
:1003700080008F7D03C0809180008F778093800004
:10038000DFCF84B58F7784BDDBCF84B58F7DFBCF86
:100390008091B0008F778093B000D2CF8091B00071
:1003A0008F7DF9CF3E2BDACF3FB7F8948091B10221
:1003B0009091B202A091B302B091B40226B5A89B6D
:1003C00005C02F3F19F00196A11DB11D3FBFBA2FE7
:1003D000A92F982F8827BC01CD01620F711D811DA7
:1003E000911D42E0660F771F881F991F4A95D1F72C
:1003F00008958F929F92AF92BF92CF92DF92EF9229
:10040000FF924B015C010E94D4016B017C010E94B0
:10041000D4016C197D098E099F09683E73408105DE
:100420009105A8F321E0821A9108A108B10888EE8D
:10043000C80E83E0D81EE11CF11C81149104A104B4
:10044000B10429F7FF90EF90DF90CF90BF90AF906D
:100450009F908F900895CF93DF93C62FD82FFC01E4
:1004600080E090E0DC012E2F2D1B2C1758F52191F8
:1004700030ED320F3A30A8F444E0880F991FAA1FDC
:10048000BB1F4A95D1F7022E000C330B20533109C4
:10049000A901330F660B770B840F951FA61FB71F9B
:1004A000E2CF3FEB320F363068F434E0880F991F0B
:1004B000AA1FBB1F3A95D1F7022E000C330B27530E
:1004C0003109E6CFBC01CD01DF91CF910895209194
:1004D0006202260F3327331F21323105ECF42091BD
:1004E0008602FC0190E080E0243069F082E008950B
:1004F000A09162022191AC014E5B5D4FA40FB52F1C
:10050000B11D2C930196861798F380916202680FB3
:100510006093620280E0089581E00895109286025F
:1005200081E0809388021092870261E082E10E945C
:10053000880161E083E10E948801E9EBF0E08081BD
:100540008E7F808380818D7F808388E48093B80054
:1005500085E48093BC000895CF93DF9391E090935E
:1005600041028823B9F0C091B800D091BA008091BF
:10057000BC008A7B8093BC0060E082E10E9488011D
:1005800060E083E10E9488010E948E02D093BA004D
:10059000C093B800DF91CF9108950895E091BC0217
:1005A0008091BB02E81730F4F0E0E45EFD4F8081FB
:1005B00090E008958FEF9FEF08959091BC02809195
:1005C000BB022FEF3FEF981748F4E92FF0E0E45E0D
:1005D000FD4F208130E09F5F9093BC02C9010895D8
:1005E0008091BB029091BC02891B990B0895CF9218
:1005F000DF92EF92FF920F931F93CF93DF937C01D3
:10060000CB018A0120911B02222389F0EB016B01AF
:10061000C40ED51ECC15DD0569F06991D701ED91A9
:10062000FC910190F081E02DC7010995F3CF642F73
:100630000E946702C801DF91CF911F910F91FF9037
:10064000EF90DF90CF900895CF93DF931F92CDB7B7
:10065000DEB7698320911B022223F9F02091B902B1
:10066000203258F021E030E0FC013383228390E017
:1006700080E00F90DF91CF9108958091BA02E82F2A
:10068000F0E0E550FE4F998190838F5F8093BA022E
:100690008093B90281E090E0ECCF61E0CE01019659
:1006A0000E946702F7CFCF92DF92EF92FF920F93F3
:1006B0001F93CF93DF93FC01C48121E020931B02A1
:1006C000C093FA011092BA021092B9028385682B86
:1006D0008AE593E00E942403D091B902D13208F058
:1006E00092C00E94D4016B017C018091860281112D
:1006F00065C082E08093860281E0809388028FEF5C
:10070000809385021092AA02D093A902ABEFB1E0C8
:10071000E9E8F2E080E0D81385C01092AB02809146
:10072000AB02CC0FC82BC093AB0280918702813003
:1007300009F07CC0109287020E94D4016B017C01F9
:100740008091AB028093BB0080913D0290913E026C
:10075000A0913F02B0914002892B8A2B8B2B99F0FC
:100760000E94D40100913D0210913E0220913F026F
:10077000309140026C197D098E099F0906171707F1
:1007800028073907E0F18091BC0083FDD9CF85ECC3
:100790008093BC000E94D4016B017C018091860291
:1007A000823009F445C0809185028F3F61F18091CC
:1007B0008502803241F18091850225C080913D0201
:1007C00090913E02A0913F02B0914002892B8A2B6A
:1007D0008B2B09F48ACF0E94D40100913D02109125
:1007E0003E0220913F02309140026C197D098E0932
:1007F0009F09061717072807390708F076CF809159
:100800003C020E94AC021092BA021092B9021092FD
:100810001B02DF91CF911F910F91FF90EF90DF901E
:10082000CF9008959D9191938F5F75CF85EEB0CF56
:1008300080913D0290913E02A0913F02B091400212
:10084000892B8A2B8B2B09F4A9CF0E94D40100910C
:100850003D0210913E0220913F02309140026C19FE
:100860007D098E099F09061717072807390708F021
:1008700095CFC5CF089590E080E008950F931F9322
:10088000CF938C01C62F0E9453036C2F6460C80164
:100890000E9453036C2F6B7FC8010E94530383ECAB
:1008A00090E00197F1F7CF911F910F9108950F9369
:1008B0001F93CF93DF938C01D62FC42F607F642BBF
:1008C0000E943E0480E1D89FB00111246C2BC80126
:1008D000DF91CF911F910F910C943E0441E00E9453
:1008E000570481E090E00895FB0101900020E9F7B2
:1008F0003197AF01461B570BDC01ED91FC91028053
:10090000F381E02D09948F929F92AF92BF920F9343
:100910001F93CF93DF93CDB7DEB7A1970FB6F894AF
:10092000DEBF0FBECDBF19A2423008F44AE08E01EF
:100930000F5D1F4F842E912CB12CA12CA501940189
:100940000E94630BE62FB901CA01EA3004F5E05DAD
:10095000D801EE938D01232B242B252B79F790E0E2
:1009600080E0109729F0BD018DEB92E00E947404A5
:10097000A1960FB6F894DEBF0FBECDBFDF91CF9129
:100980001F910F91BF90AF909F908F900895E95C59
:10099000DFCFCF93DF93BC018DEB92E00E94740414
:1009A000EC0166E371E08DEB92E00E9474048C0F21
:1009B0009D1FDF91CF910895CF93DF93EC0189E3E1
:1009C00091E00E94C9048B819C81DF91CF910C94AE
:1009D000270CCF92DF92EF92FF92CF93DF93EC013F
:1009E0008BE491E00E94C9046A818B819C810E9402
:1009F0002B026B017C0164E571E08DEB92E00E94BB
:100A000074046881798190E080E04AE00E94830468
:100A100066E371E08DEB92E00E9474046FE571E093
:100A20008DEB92E00E9474046A8170E090E080E0B7
:100A30004AE00E94830466E371E08DEB92E00E943D
:100A4000740467E671E08DEB92E00E9474044AE062
:100A5000C701B6010E94830466E371E08DEB92E06A
:100A60000E9474046FE671E08DEB92E00E947404C2
:100A70006B817C8190E080E04AE00E94830466E321
:100A800071E08DEB92E0DF91CF91FF90EF90DF90DE
:100A9000CF900C9474048F929F92AF92BF92CF929A
:100AA000DF92EF92FF920F931F93CF93DF9300D0CB
:100AB00000D01F92CDB7DEB79BE1C92E94E0D92EAE
:100AC0007601F70111927F01F0E4EF16F4E0FF06E2
:100AD000C1F710E087E0A82EB12C8DEB92E00E94C8
:100AE000E300892B71F08DEB92E00E94C100E12FB1
:100AF000F0E0E55EFB4F80831F5FC5010197F1F7D2
:100B0000ECCF80911B04813009F057C0193008F4F4
:100B100054C064E08EE194E00E942B024B0162E03D
:100B20008CE194E00E942B02062F80911904909191
:100B30001A04009711F00E94DC048EE791E00E94F5
:100B4000C90485E090E00E948B0B90931A04809377
:100B5000190483E991E00E94C90485EA91E00E94AA
:100B6000C904000F9A8289820B831D821C8282EB4A
:100B700091E00E94C90410E0C8010E948B0B9D8384
:100B80008C8386EC91E00E94C9048C819D81009742
:100B900061F51B82A0911904B0911A0485E0FE0151
:100BA000319601900D928A95E1F7CE0101960E944F
:100BB000DC0481EE91E00E94C904F60111926F01FC
:100BC000EE16FF06D1F70F900F900F900F900F9039
:100BD000DF91CF911F910F91FF90EF90DF90CF9019
:100BE000BF90AF909F908F900895A80162E274E04B
:100BF0000E94760D86ED91E00E94C904CBCF0E9441
:100C0000EF0081110C944B05089585ED8093BC0095
:100C100080913D0290913E02A0913F02B09140022E
:100C20000796A11DB11D23E0B695A79597958795C9
:100C30002A95D1F72091BC0024FD03C010928602B2
:100C4000089540913D0250913E0260913F027091A3
:100C50004002452B462B472B69F30097A105B105B0
:100C600041F02AE22A95F1F700C00197A109B109E4
:100C7000E1CF80913C020C94AC021F920F920FB610
:100C80000F9211242F933F934F935F936F937F9312
:100C90008F939F93AF93BF93EF93FF938DEB92E06E
:100CA0000E94F900FF91EF91BF91AF919F918F91B9
:100CB0007F916F915F914F913F912F910F900FBE58
:100CC0000F901F9018951F920F920FB60F9211243C
:100CD0002F938F939F93EF93FF93E091CD02F09129
:100CE000CE028081E091D302F091D40282FD1BC03C
:100CF00090818091D6028F5F8F732091D7028217E7
:100D000041F0E091D602F0E0E354FD4F958F8093DF
:100D1000D602FF91EF919F918F912F910F900FBE6F
:100D20000F901F9018958081F4CF1F920F920FB6ED
:100D30000F9211242F933F938F939F93AF93BF9361
:100D40008091AD029091AE02A091AF02B091B0023D
:100D50003091AC0223E0230F2D3758F50196A11DE9
:100D6000B11D2093AC028093AD029093AE02A0938C
:100D7000AF02B093B0028091B1029091B202A09103
:100D8000B302B091B4020196A11DB11D8093B102CE
:100D90009093B202A093B302B093B402BF91AF910B
:100DA0009F918F913F912F910F900FBE0F901F90A9
:100DB000189526E8230F0296A11DB11DD2CF1F92D0
:100DC0000F920FB60F9211242F933F934F935F937F
:100DD0006F937F938F939F93AF93BF93EF93FF9303
:100DE0008091B900887F803609F44AC0F0F58832D6
:100DF00009F4A7C018F5803109F49BC0B8F4882322
:100E000009F4F9C0883009F494C0FF91EF91BF91C3
:100E1000AF919F918F917F916F915F914F913F9192
:100E20002F910F900FBE0F901F901895883109F4E5
:100E300088C0803251F78093850214C0803409F451
:100E40009DC040F48033B9F38833F9F6809385026E
:100E500085ECB0C0803509F485C0883509F496C0AA
:100E6000883499F60E940506D0CF883909F48CC0E1
:100E700038F5883729F050F4883611F0803729F694
:100E800083E0809386021092840257C0883809F468
:100E90007BC0803919F0803809F0B7CF8091840287
:100EA000803208F071C0E091840281E08E0F80935F
:100EB00084028091BB00F0E0EC59FD4F80833DC07F
:100EC000803B39F0E0F4803A09F479C0883A09F0BF
:100ED0009CCF84E08093860210926302109262029B
:100EE000E091B702F091B8020995809162028111F8
:100EF0000FC081E0809362021092420209C0803CE0
:100F000009F4A6CF883C09F4A3CF883B09F07DCF34
:100F1000E091630281E08E0F80936302F0E0EE5B6C
:100F2000FD4F80818093BB009091630280916202AB
:100F300029C08091AB028093BB0085EC8093BC00FC
:100F400064CF9091AA028091A902981758F5E09178
:100F5000AA0281E08E0F8093AA02F0E0E757FD4FCE
:100F60008081E9CFE091AA0281E08E0F8093AA02EE
:100F70008091BB00F0E0E757FD4F80839091AA027B
:100F80008091A9029817C8F285E8D8CFE091AA020B
:100F900081E08E0F8093AA028091BB00F0E0E757BA
:100FA000FD4F80838091880281115CCF81E0809326
:100FB000870284EA8093BC001092860226CF85ECDB
:100FC0008093BC001092860280918402803230F4BB
:100FD000E0918402F0E0EC59FD4F108260918402B0
:100FE00070E0E091B502F091B60284E692E00995D6
:100FF000109284020ACF1092850234CFCF93DF93F0
:101000008091720390917303009711F00E94270C56
:10101000C8E1D4E02597CE010E94DC0483E0C83704
:10102000D807C1F7DF91CF910895CF93DF93109246
:10103000C0021092BF0288EE93E0A0E0B0E080937F
:10104000C1029093C202A093C302B093C4022AE0EB
:1010500031E03093BE022093BD0225EC30E03093A6
:10106000CA022093C90224EC30E03093CC022093D2
:10107000CB0220EC30E03093CE022093CD0221EC65
:1010800030E03093D0022093CF0222EC30E0309356
:10109000D2022093D10226EC30E03093D402209388
:1010A000D3021092D6021092D7021092D802109258
:1010B000D902109279031092780310927A03109259
:1010C0007C0310927B0310927E0310927D0310929A
:1010D0007F03109281031092800310928303109279
:1010E000820310928403109286031092850310925B
:1010F0008803109287031092890310928B03109239
:101100008A0310928D0310928C0310928E0310921A
:10111000900310928F0310929203109291031092F9
:1011200093031092950310929403109297031092D8
:1011300096031092980310929A03109299031092BA
:101140009C0310929B0310929D0310929F03109298
:101150009E031092A1031092A0031092A20310927A
:10116000A4031092A3031092A6031092A503109259
:10117000A7031092A9031092A8031092AB03109238
:10118000AA031092AC031092AE031092AD0310921A
:10119000B0031092AF031092B1031092B3031092F8
:1011A000B2031092B5031092B4031092B6031092DA
:1011B000B8031092B7031092BA031092B9031092B9
:1011C000BB031092BD031092BC031092BF03109298
:1011D000BE031092C0031092C2031092C10310927A
:1011E000C4031092C3031092C5031092C703109258
:1011F000C6031092C9031092C8031092CA0310923A
:10120000CC031092CB031092CE031092CD03109218
:10121000CF031092D1031092D0031092D3031092F7
:10122000D2031092D4031092D6031092D5031092D9
:10123000D8031092D7031092D9031092DB031092B7
:10124000DA031092DD031092DC031092DE03109299
:10125000E0031092DF031092E2031092E103109278
:10126000E3031092E5031092E4031092E703109257
:10127000E6031092E8031092EA031092E903109239
:10128000EC031092EB031092ED031092EF03109217
:10129000EE031092F1031092F0031092F2031092F9
:1012A000F4031092F3031092F6031092F5031092D8
:1012B000F7031092F9031092F8031092FB031092B7
:1012C000FA031092FC031092FE031092FD03109299
:1012D00000041092FF031092010410920304109274
:1012E0000204109205041092040410920604109255
:1012F00008041092070410920A0410920904109234
:101300000B0410920D0410920C0410920F04109212
:101310000E041092100410921204109211041092F4
:1013200014041092130410921504109217041092D2
:10133000160410921A0410921904EBE1F4E025E26D
:10134000EF0119922A95E9F710925D0310925C0360
:1013500080935E0390935F03A0936003B093610357
:101360008CE191E090935B0380935A0310926903A0
:10137000109268038EE291E0909367038093660376
:1013800087E280936A0384E180936F0384E0809313
:1013900070031092710310927303109272031092F3
:1013A000750310927403109277031092760361E034
:1013B00070E090E080E00E94B00C0097F1F0909314
:1013C000730380937203109275031092740320913B
:1013D000760330917703232B11F4FC0110821092D5
:1013E00077031092760368E371E080917203909125
:1013F0007303DF91CF910C94880D809172039091CB
:101400007303009711F00E94270C1092730310923F
:101410007203109277031092760310927503109264
:101420007403DF91CF910895789484B5826084BD70
:1014300084B5816084BD85B5826085BD85B58160D8
:1014400085BD80916E00816080936E001092810056
:101450008091810082608093810080918100816011
:1014600080938100809180008160809380008091D2
:10147000B10084608093B1008091B000816080935E
:10148000B00080917A00846080937A0080917A0025
:10149000826080937A0080917A00816080937A00E4
:1014A00080917A00806880937A001092C100E09168
:1014B000CD02F091CE0282E08083E091C902F091EA
:1014C000CA021082E091CB02F091CC0281E08083CD
:1014D0001092D502E091D102F091D20286E0808391
:1014E000E091CF02F091D002808180618083E09111
:1014F000CF02F091D002808188608083E091CF029A
:10150000F091D002808180688083E091CF02F091D9
:10151000D00280818F7D80831092BC021092BB022A
:101520001092BA021092B9020E948E0280EB90E0F3
:101530009093B8028093B70281EB90E09093B6024B
:101540008093B50210926B0380917003823018F083
:1015500098E090936B0380936E0362E370E080E009
:1015600090E00E94F9016091710386E693E00E9489
:10157000530368EE73E080E090E00E94F90160E3BD
:1015800086E693E00E943E04CBE4D6E4CE010197C8
:10159000F1F760E386E693E00E943E042197F1F7BD
:1015A00060E386E693E00E943E0483E592E00197C3
:1015B000F1F760E286E693E00E943E0460916B03DF
:1015C000606240E086E693E00E94570484E08093E6
:1015D0006C0340E06CE086E693E00E94570440E034
:1015E00061E086E693E00E945704CBE3DFE1CE01A1
:1015F0000197F1F782E080936D0340E066E086E6B4
:1016000093E00E94570440E062E086E693E00E9487
:1016100057042197F1F788E08093710360E086E634
:1016200093E00E94530340E060E886E693E00E9466
:10163000570462EF71E086E693E00E94740489EE3D
:1016400094E090934104809340040E94EF0088232B
:10165000E1F30E944B05F9CF2F923F924F925F9298
:101660006F927F928F929F92AF92BF92CF92DF92B2
:10167000EF92FF920F931F93CF93DF93CDB7DEB717
:10168000CA1BDB0B0FB6F894DEBF0FBECDBF0994AB
:101690002A88398848885F846E847D848C849B8402
:1016A000AA84B984C884DF80EE80FD800C811B8110
:1016B000AA81B981CE0FD11D0FB6F894DEBF0FBE3F
:1016C000CDBFED010895A1E21A2EAA1BBB1BFD019F
:1016D0000DC0AA1FBB1FEE1FFF1FA217B307E40711
:1016E000F50720F0A21BB30BE40BF50B661F771F69
:1016F000881F991F1A9469F7609570958095909549
:101700009B01AC01BD01CF010895EE0FFF1F0590B5
:10171000F491E02D09940F931F93CF93DF938230C0
:10172000910510F482E090E0E0914404F0914504CA
:1017300030E020E0B0E0A0E0309799F421153105C9
:1017400009F44AC0281B390B24303105D8F58A81A9
:101750009B816115710589F1FB0193838283FE01F1
:1017600011C0408151810281138148175907E0F06F
:101770004817590799F4109761F012960C93129735
:1017800013961C933296CF01DF91CF911F910F9149
:1017900008950093440410934504F4CF21153105B6
:1017A00051F04217530738F0A901DB019A01BD013E
:1017B000DF01F801C1CFEF01F9CF90934504809389
:1017C0004404CDCFFE01E20FF31F81939193225089
:1017D000310939832883D7CF2091420430914304C3
:1017E000232B41F4209102013091030130934304F3
:1017F000209342042091000130910101211531050F
:1018000041F42DB73EB74091040150910501241BCE
:10181000350BE0914204F0914304E217F307A0F482
:101820002E1B3F0B2817390778F0AC014E5F5F4F36
:101830002417350748F04E0F5F1F50934304409321
:101840004204819391939FCFF0E0E0E09CCFCF934F
:10185000DF930097E9F0FC01329713821282A09186
:101860004404B0914504ED0130E020E01097A1F46C
:1018700020813181820F931F2091420430914304D3
:101880002817390709F061C0F0934304E09342043C
:10189000DF91CF910895EA01CE17DF07E8F54A817D
:1018A0005B819E0141155105B1F7E901FB83EA8394
:1018B00049915991C40FD51FEC17FD0761F4808140
:1018C00091810296840F951FE90199838883828113
:1018D00093819B838A83F0E0E0E012968D919C9146
:1018E00013970097B9F52D913C911197CD01029670
:1018F000820F931F20914204309143042817390727
:1019000039F6309751F51092450410924404B09383
:101910004304A0934204BCCFD383C283408151814E
:10192000840F951FC817D90761F44E5F5F4F8881F8
:101930009981480F591F518340838A819B819383EA
:1019400082832115310509F0B0CFF0934504E0936F
:1019500044049ECFFD01DC01C0CF13821282D7CF99
:10196000B0E0A0E0E6EBFCE00C942E0B8C010097BD
:1019700051F4CB010E948B0B8C01C801CDB7DEB7AF
:10198000E0E10C944A0BFC01E60FF71F9C0122508A
:101990003109E217F30708F49DC0D901CD91DC911C
:1019A0001197C617D70798F0C530D10530F3CE018F
:1019B00004978617970708F3C61BD70B2297C19386
:1019C000D1936D937C93CF010E94270CD6CF5B01FE
:1019D000AC1ABD0A4C018C0E9D1EA0914404B0911E
:1019E0004504512C412CF12CE12C109731F58091BC
:1019F0004204909143048815990509F05CC046168D
:101A0000570608F058C0809100019091010100979D
:101A100041F48DB79EB74091040150910501841B9C
:101A2000950BE817F90708F055C0F0934304E093CD
:101A30004204F90171836083A0CF8D919C9111972D
:101A400012966C90129713967C901397A815B9056F
:101A500059F56C0142E0C40ED11CCA14DB0420F11C
:101A6000AC014A195B09DA011296159780F062827F
:101A7000738251834083D9016D937C93E114F10407
:101A800071F0D7011396FC93EE93129776CF2296BE
:101A90008C0F9D1FF90191838083F301EFCFF093A9
:101AA0004504E093440469CF4816590608F42C0114
:101AB0007D01D3019ACFCB010E948B0B7C01009753
:101AC00049F0AE01B8010E946D0DC8010E94270CBB
:101AD000870153CF10E000E050CFFB01DC0102C0D2
:101AE00001900D9241505040D8F70895681779073A
:101AF00068F4FB01DC01E40FF51FA40FB51F02C061
:101B000002900E9241505040D8F708950C946D0DFC
:101B1000FB01DC0101900D920020E1F7089510E037
:101B2000C8E5D0E004C0FE010E94850B2196C935AE
:081B3000D107C9F7F894FFCFBB
:101B3800000046048000000000001B018300B20082
:101B48006801E300C100D500000000002403F7028B
:101B58003B04CD02F002DD02CE02000000006E045C
:101B680083003B043A040D0A00446573747275637C
:101B7800746F722063616C6C65640043616C6C65A2
:101B8800643A200009416464726573733A2000095D
:101B980053697A653A200009446174613A20000962
:101BA800506F696E74696E6720746F3A2000416CDB
:101BB8006C6F636174696E67207374727563742ED9
:101BC8002E2E00416C6C6F636174656420737472AF
:101BD8007563742E0041737369676E696E672E2E84
:101BE8002E000A416C6C6F636174696E67206461D2
:101BF80074612E2E2E00416C6C6F636174656420D5
:101C0800646174612E004D6F76656420646174614F
:101C1800000A4E65772061737369676E6D656E742F
:0A1C28002E00536574207570000053
:107E0000112484B714BE81FFF0D085E080938100F7
:107E100082E08093C00088E18093C10086E0809377
:107E2000C20080E18093C4008EE0C9D0259A86E02C
:107E300020E33CEF91E0309385002093840096BBD3
:107E4000B09BFECF1D9AA8958150A9F7CC24DD24C4
:107E500088248394B5E0AB2EA1E19A2EF3E0BF2EE7
:107E6000A2D0813461F49FD0082FAFD0023811F036
:107E7000013811F484E001C083E08DD089C08234E0
:107E800011F484E103C0853419F485E0A6D080C0E4
:107E9000853579F488D0E82EFF2485D0082F10E0AE
:107EA000102F00270E291F29000F111F8ED06801E7
:107EB0006FC0863521F484E090D080E0DECF843638
:107EC00009F040C070D06FD0082F6DD080E0C81688
:107ED00080E7D80618F4F601B7BEE895C0E0D1E017
:107EE00062D089930C17E1F7F0E0CF16F0E7DF06D8
:107EF00018F0F601B7BEE89568D007B600FCFDCFD4
:107F0000A601A0E0B1E02C9130E011968C91119780
:107F100090E0982F8827822B932B1296FA010C0160
:107F200087BEE89511244E5F5F4FF1E0A038BF0790
:107F300051F7F601A7BEE89507B600FCFDCF97BE46
:107F4000E89526C08437B1F42ED02DD0F82E2BD052
:107F50003CD0F601EF2C8F010F5F1F4F84911BD097
:107F6000EA94F801C1F70894C11CD11CFA94CF0C13
:107F7000D11C0EC0853739F428D08EE10CD085E9AC
:107F80000AD08FE07ACF813511F488E018D01DD067
:107F900080E101D065CF982F8091C00085FFFCCF94
:107FA0009093C60008958091C00087FFFCCF809118
:107FB000C00084FD01C0A8958091C6000895E0E648
:107FC000F0E098E1908380830895EDDF803219F02E
:107FD00088E0F5DFFFCF84E1DECF1F93182FE3DFCA
:107FE0001150E9F7F2DF1F91089580E0E8DFEE27F6
:047FF000FF270994CA
:027FFE00040479
:0400000300007E007B
:00000001FF