:100000000C9436000C945E000C945E000C945E0020
:100010000C945E000C945E000C945E000C945E00E8
:100020000C945E000C945E000C945E000C945E00D8
:100030000C945E000C945E000C945E000C945E00C8
:100040000C94C8010C945E000C9438020C941202BB
:100050000C945E000C945E000C945E000C945E00A8
:100060000C945E000C945E006A02EA0311241FBE29
:10007000CFEFD8E0DEBFCDBF22E0A8E1B1E001C004
:100080001D92AD38B207E1F711E0A0E0B1E0E4E67F
:10009000FAE002C005900D92A831B107D9F710E03F
:1000A000C5E3D0E004C02197FE010E94FA03C433E7
:1000B000D107C9F70E94A0030C9425050C940000F9
:1000C000AF92BF92CF92DF92EF92FF920F931F9366
:1000D000CF93DF936C017B018B01040F151FEB01A4
:1000E0005E01AE18BF08C017D10759F06991D6015B
:1000F000ED91FC910190F081E02DC6010995892BCD
:1001000079F7C501DF91CF911F910F91FF90EF908B
:10011000DF90CF90BF90AF900895FC01538D448D38
:10012000252F30E0842F90E0821B930B541710F0A2
:10013000CF96089501970895FC01918D828D9817AF
:1001400061F0A28DAE0FBF2FB11D5D968C91928D87
:100150009F5F9F73928F90E008958FEF9FEF0895B8
:10016000FC01918D828D981731F0828DE80FF11D81
:10017000858D90E008958FEF9FEF0895FC01918D9C
:10018000228D892F90E0805C9F4F821B91098F7395
:100190009927089581E291E00E94BE0021E0892B19
:1001A00009F420E0822F0895FC01A48DA80FB92F37
:1001B000B11DA35ABF4F2C91848D90E001968F738F
:1001C0009927848FA689B7892C93A089B1898C91AE
:1001D000837080648C93938D848D981306C00288FD
:1001E000F389E02D80818F7D80830895EF92FF92C7
:1001F0000F931F93CF93DF93EC0181E0888F9B8D4A
:100200008C8D98131AC0E889F989808185FF15C003
:100210009FB7F894EE89FF896083E889F989808126
:100220008370806480839FBF81E090E0DF91CF91F5
:100230001F910F91FF90EF900895F62E0B8D10E017
:100240000F5F1F4F0F731127E02E8C8D8E110CC086
:100250000FB607FCFACFE889F989808185FFF5CFD1
:10026000CE010E94D400F1CFEB8DEC0FFD2FF11DDC
:10027000E35AFF4FF0829FB7F8940B8FEA89FB890E
:1002800080818062CFCFCF93DF93EC01888D88236C
:10029000B9F0AA89BB89E889F9898C9185FD03C0E9
:1002A000808186FD0DC00FB607FCF7CF8C9185FFCE
:1002B000F2CF808185FFEDCFCE010E94D400E9CF3F
:1002C000DF91CF9108950F931F93CF93DF9300D0C9
:1002D00000D01F92CDB7DEB781E291E00E94BE0050
:1002E000892B39F081E291E00E949C0080936102A9
:1002F000F3CF01E612E080916102813059F5F801F7
:1003000001900020E9F78F010256124080916302AC
:100310009091640205968017910791F0E091870211
:10032000F09188021A8219821C821B821D8261E66A
:1003300072E0CE01019609958B819C810E949C04FC
:100340000F900F900F900F900F90DF91CF911F9112
:100350000F910895E0918702F09188021A82198224
:100360001C821B821D8261E672E0CE010196099516
:100370008B819C810E949C0486E2F80111928A95EF
:10038000E9F7DECF0E94CA0081110C946301089541
:100390001F920F920FB60F9211242F933F938F93BA
:1003A0009F93AF93BF9380911D0190911E01A091E7
:1003B0001F01B091200130911C0123E0230F2D3744
:1003C00058F50196A11DB11D20931C0180931D01BC
:1003D00090931E01A0931F01B093200180911801FA
:1003E00090911901A0911A01B0911B010196A11DD4
:1003F000B11D8093180190931901A0931A01B09335
:100400001B01BF91AF919F918F913F912F910F90C1
:100410000FBE0F901F90189526E8230F0296A11D7E
:10042000B11DD2CF1F920F920FB60F9211242F93AE
:100430003F934F935F936F937F938F939F93AF936C
:10044000BF93EF93FF9381E291E00E94D400FF916C
:10045000EF91BF91AF919F918F917F916F915F913C
:100460004F913F912F910F900FBE0F901F901895B5
:100470001F920F920FB60F9211242F938F939F9379
:10048000EF93FF93E0913101F09132018081E0918F
:100490003701F091380182FD1BC0908180913A01B3
:1004A0008F5F8F7320913B01821741F0E0913A01F9
:1004B000F0E0EF5DFE4F958F80933A01FF91EF9151
:1004C0009F918F912F910F900FBE0F901F901895B5
:1004D0008081F4CFE1E2F1E01382128288EE93E0B2
:1004E000A0E0B0E084839583A683B7838AE091E09F
:1004F0009183808385EC90E09587848784EC90E0FD
:100500009787868780EC90E0918B808B81EC90E0E0
:10051000938B828B82EC90E0958B848B86EC90E0C1
:10052000978B868B118E128E138E148EEEEBF1E06C
:100530001182108213821282148216821582108612
:100540001782118613861286158614861686108ADF
:100550001786128A118A138A158A148A178A168AAC
:10056000108E128E118E148E138E158E178E168E7F
:1005700011A210A212A214A213A216A215A217A2CF
:1005800011A610A613A612A614A616A615A610AAA2
:1005900017A611AA13AA12AA15AA14AA16AA10AE6F
:1005A00017AA12AE11AE13AE15AE14AE17AE16AE3C
:1005B0001092FE01109200021092FF0110920202AE
:1005C000109201021092030210920502109204028E
:1005D00010920702109206021092080210920A026C
:1005E0001092090210920C0210920B0210920D024E
:1005F00010920F0210920E0210921102109210022D
:10060000109212021092140210921302109216020B
:1006100010921502109217021092190210921802ED
:1006200010921B0210921A0210921C0210921E02CB
:1006300010921D021092200210921F0210922102AD
:10064000109223021092220210922502109224028C
:1006500010922602109228021092270210922A026B
:100660001092290210922B0210922D0210922C024D
:1006700010922F0210922E0210923002109232022B
:10068000109231021092340210923302109235020D
:1006900010923702109236021092390210923802EC
:1006A00010923A0210923C0210923B0210923E02CB
:1006B00010923D0210923F021092410210924002AD
:1006C000109243021092420210924402109246028B
:1006D000109245021092480210924702109249026D
:1006E00010924B0210924A0210924D0210924C024C
:1006F00010924E021092500210924F02109252022B
:10070000109251021092530210925502109254020C
:1007100010925702109256021092580210925A02EA
:100720001092590210925C0210925B0210925D02CC
:10073000E1E6F2E086E2DF011D928A95E9F708958D
:10074000789484B5826084BD84B5816084BD85B5AC
:10075000826085BD85B5816085BD80916E008160B8
:1007600080936E001092810080918100826080935E
:100770008100809181008160809381008091800060
:100780008160809380008091B10084608093B1008B
:100790008091B00081608093B00080917A00846085
:1007A00080937A0080917A00826080937A008091B1
:1007B0007A00816080937A0080917A0080688093CB
:1007C0007A001092C1000E94CA008823E1F30E94BF
:1007D0006301F9CFCF93DF93CEE5D2E025978A81ED
:1007E0009B810E949C0481E0CE3BD807B9F7DF9142
:1007F000CF910895EE0FFF1F0590F491E02D09941D
:100800000F931F93CF93DF938230910510F482E012
:1008100090E0E0918B02F0918C0230E020E0B0E0BB
:10082000A0E0309799F42115310509F44AC0281B3E
:10083000390B24303105D8F58A819B81611571050A
:1008400089F1FB0193838283FE0111C040815181B4
:100850000281138148175907E0F04817590799F4A6
:10086000109761F012960C93129713961C93329680
:10087000CF01DF91CF911F910F91089500938B02CB
:1008800010938C02F4CF2115310551F04217530714
:1008900038F0A901DB019A01BD01DF01F801C1CFE8
:1008A000EF01F9CF90938C0280938B02CDCFFE01A4
:1008B000E20FF31F819391932250310939832883EA
:1008C000D7CF2091890230918A02232B41F42091C5
:1008D00002013091030130938A0220938902209112
:1008E0000001309101012115310541F42DB73EB7CA
:1008F0004091040150910501241B350BE0918902C0
:10090000F0918A02E217F307A0F42E1B3F0B281781
:10091000390778F0AC014E5F5F4F2417350748F078
:100920004E0F5F1F50938A024093890281939193E7
:100930009FCFF0E0E0E09CCFCF93DF930097E9F00A
:10094000FC01329713821282A0918B02B0918C022B
:10095000ED0130E020E01097A1F420813181820F79
:10096000931F2091890230918A022817390709F0D4
:1009700061C0F0938A02E0938902DF91CF910895DC
:10098000EA01CE17DF07E8F54A815B819E01411538
:100990005105B1F7E901FB83EA8349915991C40FED
:1009A000D51FEC17FD0761F4808191810296840FB9
:1009B000951FE90199838883828193819B838A8330
:1009C000F0E0E0E012968D919C9113970097B9F5B5
:1009D0002D913C911197CD010296820F931F20918A
:1009E000890230918A022817390739F6309751F574
:1009F00010928C0210928B02B0938A02A09389020B
:100A0000BCCFD383C28340815181840F951FC81707
:100A1000D90761F44E5F5F4F88819981480F591F54
:100A2000518340838A819B81938382832115310581
:100A300009F0B0CFF0938C02E0938B029ECFFD01C2
:100A4000DC01C0CF13821282D7CF10E0C5E3D0E023
:100A500004C0FE010E94FA032196C633D107C9F7EC
:040A6000F894FFCF38
:100A640000008D02800000000000F60060008D0090
:080A74004301BE009C00B0002C
:00000001FF
